:020000040800F2
:1000000000900020F9340008093400080F3400087B
:1000100000000000000000000000000000000000E0
:10002000000000000000000000000000153400087F
:1000300000000000000000001F3400082934000800
:10004000493500080000000049350008493500081E
:100050004935000849350008493500084935000888
:10006000000000003934000849350008493500080F
:1000700049350008493500084935000800000000EE
:100080005134000849350008493500084935000851
:100090004935000849350008493500084935000848
:1000A0004935000849350008493500084935000838
:0800B00049350008693400081D
:1000B80010B5064C2378002B07D1054B002B02D036
:1000C800044800E000BF0123237010BDE8030020AE
:1000D8000000000090810008044B10B5002B03D0ED
:1000E8000349044800E000BF10BDC04600000000FE
:1000F800EC0300209081000803B4714649084000D1
:100108004900095E49008E4403BC70470022430839
:100118008B4274D303098B425FD3030A8B4244D3C7
:10012800030B8B4228D3030C8B420DD3FF22090209
:1001380012BA030C8B4202D31212090265D0030BC8
:100148008B4219D300E0090AC30B8B4201D3CB03BE
:10015800C01A5241830B8B4201D38B03C01A524100
:10016800430B8B4201D34B03C01A5241030B8B4202
:1001780001D30B03C01A5241C30A8B4201D3CB02ED
:10018800C01A5241830A8B4201D38B02C01A5241D2
:10019800430A8B4201D34B02C01A5241030A8B42D5
:1001A80001D30B02C01A5241CDD2C3098B4201D3ED
:1001B800CB01C01A524183098B4201D38B01C01A6B
:1001C800524143098B4201D34B01C01A52410309E2
:1001D8008B4201D30B01C01A5241C3088B4201D391
:1001E800CB00C01A524183088B4201D38B00C01A3E
:1001F800524143088B4201D34B00C01A5241411A65
:1002080000D20146524110467047FFE701B5002071
:1002180000F006F802BDC0460029F7D076E770471F
:100228007047C046844608006146FFE71FB500F0E6
:100238009FF8002801D40021C8421FBD10B500F066
:100248002BF84042013010BD10B500F091F800289D
:1002580001DB002010BD012010BDC04610B500F024
:1002680087F8002801DD002010BD012010BDC04620
:1002780010B500F037F8002801DC002010BD01207F
:1002880010BDC04610B500F02DF8002801DA002096
:1002980010BD012010BDC04670B5420045024E0297
:1002A8004C00C30F6D0A0120120E760A240EC90FE6
:1002B800FF2A06D0FF2C03D0A24201D1B54206D0B6
:1002C80070BD002DFCD1FF2CFAD1002EF8D18B4245
:1002D80006D00120002AF3D12800431E9841EFE7F9
:1002E8000020EDE770B5420045024E024C00C30FF6
:1002F8006D0A120E760A240EC80FFF2A1BD0FF2C97
:100308000ED0002A1BD1002C01D1002E1CD0002DAC
:100318000CD083421CD00221581E0840013870BD01
:10032800002E22D1002AF4D1002DF2D10028F6D1D6
:1003380001204042F3E7002D17D1FF2CF0D0002C0C
:10034800E7D1002EE5D1E6E70020002DE7D0E2E76F
:10035800A24205DCEADBB54202D8E7D30020DEE79B
:100368004342584140000138D9E702204042D6E7CD
:1003780070B5420045024E024C00C30F6D0A120EC2
:10038800760A240EC80FFF2A0BD0FF2C0DD0002AA6
:100398001FD1002C16D1002E14D10020002D10D012
:1003A80009E0002D0CD1FF2C13D1002E08D1002A12
:1003B80008D0834212D00221581E0840013800E0BC
:1003C800022070BD002DF4D10028FAD1012040424E
:1003D800F7E7002CEDD1002EEBD1ECE7A24205DCCB
:1003E800F2DBB54202D8EFD30020EAE74342584196
:1003F80040000138E5E7C04641024200C30F490A00
:100408000020120E7E2A03DD9D2A02DD094A981873
:100418007047802000040143952A07DC9620821A41
:10042800D1404842002BF3D10800F1E7963A9140B9
:10043800F7E7C046FFFFFF7F70B5051E0ED000F03E
:100448003DF89E2304001B1A962B0CDC082801DDBE
:10045800083CA5406D026D0AD8B201E000200025D5
:10046800C005284370BD992B09DD020029001B3205
:1004780091404A1E91410522121AD5400D43052C80
:1004880012DC29000C4E31406A0709D00F202840A1
:10049800042805D004314A0102D59F2331401B1B93
:1004A80089014D0AD8B2DBE7621F95402900024E48
:1004B80031406A07F4D0E9E7FFFFFFFB1C21012365
:1004C8001B04984201D3000C10391B0A984201D32F
:1004D800000A08391B09984201D30009043902A20D
:1004E800105C40187047C046040302020101010174
:1004F800000000000000000080B500AF024B0122A0
:100508001A70C046BD4680BD0404002080B500AF07
:10051800024B01225A70C046BD4680BD040400202B
:1005280080B500AF024B01221A70C046BD4680BD9F
:100538000804002080B500AF024B01225A70C04663
:10054800BD4680BD0804002080B582B000AFFB1D09
:1005580000221A7056E0FB1D1A782F491300DB00A1
:100568009B189B00CB1820331B6801209847FB1D64
:100578001A7829491300DB009B189B00CB181C3301
:100588001B6801209847FB1D1A7823491300DB00DC
:100598009B189B00CB1818331B6801209847FB1D3C
:1005A8001B78002B07D180239B011C4801221900CE
:1005B80004F083F90AE0FB1D1B78012B06D1802388
:1005C8001B0216480122190004F077F9FB1D1B785D
:1005D800002B08D180239900A023DB0501221800F5
:1005E80004F06BF909E0FB1D1B78012B05D10C4BBE
:1005F80001228021180004F060F9FB1D1A78FB1D08
:1006080001321A70FB1D1B78012BA4D9C046C046C5
:10061800BD4602B080BDC046000000200004005066
:100628000008005080B582B000AF0200FB1D1A70B0
:10063800BB1D0A1C1A70BB1D1B78074A0121D15427
:10064800BB1D1A78FB1D1978044B9200D150C04687
:10065800BD4602B080BDC046FC0400200005002055
:1006680080B582B000AF00F007FEFB1D00221A70B3
:100678000EE0FB1D1B78180000F02EF8FB1D1B7800
:10068800180000F067F8FB1D1A78FB1D01321A707C
:10069800FB1D1B78012BECD9C046C046BD4602B0F5
:1006A80080BD80B582B000AFFB1D00221A7009E042
:1006B800FB1D1B78180000F081F8FB1D1A78FB1D44
:1006C80001321A70FB1D1B78012BF1D9C046C046B8
:1006D800BD4602B080BD000080B582B000AF020008
:1006E800FB1D1A70FB1D1B78184AD35C052B28D8F4
:1006F8009A00174BD3181B689F46FB1D1B781800E0
:1007080000F07EF81EE0FB1D1B78180000F0A6F82C
:1007180018E0FB1D1B78180000F03CF912E0FB1DE7
:100728001B78180000F060FA0CE0FB1D1B7818001D
:1007380000F0A6F906E0FB1D1B78180000F0E2FAAD
:1007480000E0C046C046BD4602B080BDEC040020B3
:100758007084000880B582B000AF0200FB1D1A70DB
:10076800FB1D1B78144AD35C032B1AD01FDC022B09
:1007780011D01CDC002B02D0012B06D017E0FB1D8A
:100788001B78180000F01AFB12E0FB1D1B781800FC
:1007980000F042FB0CE0FB1D1B78180000F0B6FBD4
:1007A80006E0FB1D1B78180000F042FC00E0C04684
:1007B800C046BD4602B080BDF404002080B582B0BA
:1007C80000AF0200FB1D1A70FB1D1B780B4AD35C9F
:1007D800002B02D0012B06D00BE0FB1D1B78180064
:1007E80000F0ECFC05E0FB1D1B78180000F0B8FCDD
:1007F800C046C046BD4602B080BDC046F8040020D1
:1008080090B585B000AF0200FB1D1A70FB1D1B7868
:10081800002B01D10D4B00E00D4BFB60FB1D1C783C
:10082800FA235A00FA235900FB68180002F0EEF97F
:100838000100084BA200D150FB1D1B78064A01217C
:10084800D154C046BD4605B090BDC046010500085C
:10085800150500080C040020EC04002080B582B0C7
:1008680000AF0200FB1D1A70FB1D1B78414AD35CC8
:10087800002B00D17AE0404B05221900022001F03C
:10088800CBFAFB1D1B783B4A0021D154FB1D1A787B
:100898003A491300DB009B189B005B589847031CE0
:1008A8003749181CFFF7E4FC031E17D0FB1D1B7803
:1008B800344A0221D154FB1D1A7830491300DB0059
:1008C8009B189B00CB1820331B6801209847FB1D01
:1008D8001A782D4B92000021D15047E0FB1D1A7861
:1008E80026491300DB009B189B005B589847031CA4
:1008F8002649181CFFF7A8FC031E1BD0FB1D1A78FD
:100908001E491300DB009B189B005B589847031C8B
:100918001F49181CFFF7B6FC031E0BD0FB1D1B78E4
:10092800184A0321D154FB1D1A78174B9200002155
:10093800D1501BE0FB1D1A7810491300DB009B18EF
:100948009B005B589847031C1149181CFFF77CFC57
:10095800031E00D10AE0FB1D1B780A4A0421D1546A
:10096800FB1D1A78084B92000021D150C046BD46A5
:1009780002B080BD04040020A88100080000002007
:100988000000C842EC0400201C0400200000AA4219
:100998000000484290B585B002AF0200FB1D1A70F6
:1009A800FB1D1B782C4AD35C002B50D02B4B092203
:1009B8001900022001F030FAFB1D1B78264A00219D
:1009C800D154FB1D1A7826491300DB009B189B00A5
:1009D8005B589847031C2349181CFFF735FC031E76
:1009E80005D0FB1D1B78204A0121D15408E0FB1DCE
:1009F8001B781E4A99008A58511C1C4A9B00995022
:100A0800FB1D1A78194B9200D358062B1FD9FB1DD2
:100A18001B78154A0521D154FB1D1A78104913007B
:100A2800DB009B189B00CB1820331B6801209847DC
:100A3800FB1D1B7832225A430D4BD018FB1D1C7826
:100A48000C4A0D490D4B0093230006F03DFFC046AC
:100A5800BD4603B090BDC04604040020B081000824
:100A6800000000200000BE42EC0400201C0400200E
:100A780024040020BC810008C8810008D081000837
:100A880090B585B002AF0200FB1D1A70FB1D1B78E4
:100A98004A4AD35C022B05D0FB1D1B78474AD35C1E
:100AA800042B12D1FB1D1A78454B92000021D1501E
:100AB800FB1D1A7843491300DB009B189B00CB18D9
:100AC80020331B68012098470BE0FB1D1A783D492D
:100AD8001300DB009B189B00CB1820331B680020F9
:100AE8009847FB1D1B78384AD35C002B62D0374BE4
:100AF80006221900022001F08FF9FB1D1B78324AEB
:100B08000021D154FB1D1A782E491300DB009B18D5
:100B18009B005B589847031C2D49181CFFF7A8FB3E
:100B2800031E17D0FB1D1B782A4A0321D154FB1D35
:100B38001A7824491300DB009B189B00CB1820333C
:100B48001B6800209847FB1D1A781D4B9200002156
:100B5800D15008E0FB1D1B78194A99008A58511C8E
:100B6800174A9B009950FB1D1A78154B9200D358D1
:100B7800062B1FD9FB1D1B78164A0521D154FB1DD6
:100B88001A7810491300DB009B189B00CB18203300
:100B98001B6801209847FB1D1B7832225A430E4BD5
:100BA800D018FB1D1C780D4A0D490E4B00932300ED
:100BB80006F08AFEC046BD4603B090BDF004002092
:100BC8001C0400200000002004040020DC81000830
:100BD80000004842EC04002024040020BC810008E6
:100BE800C8810008E481000880B582B000AF020027
:100BF800FB1D1A70FB1D1B783A4AD35C022B05D0EB
:100C0800FB1D1B78374AD35C042B0CD1FB1D1A78CB
:100C180035491300DB009B189B00CB1820331B6859
:100C2800012098470BE0FB1D1A782F491300DB00C1
:100C38009B189B00CB1820331B6800209847FB1D8E
:100C48001B782A4AD35C002B48D0294B092219006B
:100C5800022001F0E1F8FB1D1B78244A0021D15441
:100C6800FB1D1A7820491300DB009B189B005B587A
:100C78009847031C1F49181CFFF7FAFA031E17D0E0
:100C8800FB1D1B781C4A0121D154FB1D1A781649FB
:100C98001300DB009B189B00CB1820331B68012036
:100CA8009847FB1D1A78154B92000021D15015E08A
:100CB800FB1D1A780C491300DB009B189B005B583E
:100CC8009847031C0E49181CFFF7BEFA031E00D1F3
:100CD80004E0FB1D1B78084A0421D154C046BD46D8
:100CE80002B080BDF00400200000002004040020B1
:100CF800F08100080000B442EC0400201C0400202D
:100D08000000484280B582B000AF0200FB1D1A7097
:100D1800FB1D1B78224AD35C002B3CD0214B0422BC
:100D28001900022001F078F8FB1D1B781C4A0021ED
:100D3800D154FB1D1B7832225A431B4BD318322245
:100D48001900022001F068F8FB1D1A7817491300F2
:100D5800DB009B189B005B589847031C1449181C20
:100D6800FFF786FA031E00D115E0FB1D1A780F491C
:100D78001300DB009B189B005B589847031C0D4928
:100D8800181CFFF761FA031E00D104E0FB1D1B7855
:100D9800094A0121D154C046BD4602B080BDC046B3
:100DA80004040020FC810008240400200000002026
:100DB800000082420000A042EC04002090B585B0FB
:100DC80000AF0200FB1D1A70FB1D1B78002B01D120
:100DD8000D4B00E00D4BFB60FB1D1C78FA239A00BD
:100DE800FA239900FB68180001F010FF0100084B76
:100DF800A200D150FB1D1B78064A0121D154C046E0
:100E0800BD4605B090BDC046290500083D0500084F
:100E180014040020F404002090B585B002AF02004D
:100E2800FB1D1A70FB1D1B782F4AD35C002B57D073
:100E3800FB1D1B782C4A0021D154FB1D1A782B4925
:100E48001300DB009B189B00CB1804331B689847E2
:100E5800031E19D0FB1D1B78254AD35C002B13D128
:100E6800FB1D1B78234A0321D154FB1D1B7832221A
:100E78005A43214BD018FB1D1C78204A2049214B8E
:100E88000093230006F020FDFB1D1A781749130074
:100E9800DB009B189B00CB1804331B6898470300A2
:100EA8001A0001235340DBB2002B19D0FB1D1B781D
:100EB8000F4AD35C012B13D1FB1D1B780D4A02216D
:100EC800D154FB1D1B7832225A430B4BD018FB1D03
:100ED8001C780A4A0A490C4B0093230006F0F4FCDC
:100EE800C046BD4603B090BD0804002000000020A5
:100EF800F8040020F4040020880400200082000880
:100F0800C88100080C8200082082000890B585B0CE
:100F180002AF0200FB1D1A70FB1D1B783B4AD35C15
:100F2800002B6ED0FB1D1B78384A0021D154FB1DC5
:100F38001B7832225A43364BD3183222190002202A
:100F480000F06AFFFB1D1A7832491300DB009B187A
:100F58009B00CB1804331B689847031E21D0FB1D48
:100F68001B782D4AD35C002B1BD1FB1D1A782B4B09
:100F78009200D358180001F0CFFFFB1D1B78284AB8
:100F88000321D154FB1D1B7832225A43204BD01821
:100F9800FB1D1C78234A2449244B0093230006F0A8
:100FA80093FCFB1D1A781B491300DB009B189B0060
:100FB800CB1804331B68984703001A0001235340D9
:100FC800DBB2002B05D0FB1D1B78134AD35C002B2A
:100FD80012D0FB1D1A780F491300DB009B189B00E9
:100FE800CB1804331B689847031E0AD0FB1D1B78D7
:100FF800094AD35C012B04D1FB1D1B78084A012147
:10100800D154C046BD4603B090BDC0460804002078
:101018008804002000000020F804002014040020A8
:10102800F404002000820008C88100080C8200082F
:1010380090B585B002AF0200FB1D1A70FB1D1B782E
:101048003E4AD35C002B00D173E0FB1D1B783B4A62
:101058000021D154FB1D1B7832225A43384BD31838
:1010680032221900022000F0D7FEFB1D1A783549FC
:101078001300DB009B189B00CB1804331B689847B0
:1010880003001A0001235340DBB2002B21D0FB1DC3
:101098001B782D4AD35C012B1BD1FB1D1A782B4BD7
:1010A8009200D358180001F037FFFB1D1B78284A1F
:1010B8000221D154FB1D1B7832225A43204BD018F1
:1010C800FB1D1C78234A2449244B0093230006F077
:1010D800FBFBFB1D1A781B491300DB009B189B00C8
:1010E800CB1804331B68984703001A0001235340A8
:1010F800DBB2002B05D0FB1D1B78134AD35C002BF9
:1011080012D0FB1D1A780F491300DB009B189B00B7
:10111800CB1804331B689847031E0AD0FB1D1B78A5
:10112800094AD35C012B04D1FB1D1B78084A012115
:10113800D154C046BD4603B090BDC0460804002047
:101148008804002000000020F80400201404002077
:10115800F404002000820008C881000820820008EA
:1011680080B582B000AF0200FB1D1A70FB1D1B7812
:10117800180000F095F9031E16D0FB1D1B780C4AC9
:101188000021D154FB1D1A780A491300DB009B1873
:101198009B00CB1818331B6801209847064B09227F
:1011A8001900022000F038FEC046BD4602B080BDDE
:1011B800F8040020000000205C82000890B583B08D
:1011C80000AFF91D0870F91D09782448415C002911
:1011D80040D0F91D09782248415C02293AD0F91D0E
:1011E80009781F48415C042934D0F91D09781D4845
:1011F800415C04292ED0F91D09781A48415C05295B
:1012080028D0F91D0978154800244454F91D087898
:101218001549800041580A0000210B00F91D097882
:10122800080000F05DF9FB1D1B78104A0121D1541C
:10123800FB1D1A780E491300DB009B189B00CB1886
:1012480018331B68002098470A4B0822190002200F
:1012580000F0E2FDC046BD4603B090BDFC0400208E
:10126800F0040020EC04002000050020F804002011
:101278000000002068820008B0B58EB000AF3723A8
:10128800FB1800221A709EE037203B181A783B188A
:101298001B785249895C524AD1543B181B78002B61
:1012A8000AD1A023DB050421180003F0E9FA0300A2
:1012B8005A1E9341DBB208E04A4B1021180003F094
:1012C800DFFA03005A1E9341DBB237257A191278E8
:1012D80042498B547B191B78404AD35C002B6CD055
:1012E8007B191B783E4AD35C01225340DBB2002BAA
:1012F80063D07B191C783C4AE300D3181A685B68F2
:101308000120002112184B413748E10041180A60BA
:101318004B607B191C78354AE300D3181A685B6860
:101328000120002112184B413048E10041180A60A1
:101338004B607B191B782E4ADB00D3181A685B6850
:101348001100194339D07B191C78294AE300D318B6
:101358001A685B6801204042C11712184B412448A3
:10136800E10041180A604B603B1D00221A600433FB
:101378002E220021180006F09EFA7B191B781C4AC1
:10138800DB00D3181A685B681A49381D06F09CFA06
:101398003B1D32221900022000F03EFD7B191B780C
:1013A800134ADB00D3181A685B681100194304D18B
:1013B8007B191B78104A0121D15437217B181A78E0
:1013C8007B1801321A703723FB181B78012B00D8C1
:1013D8005AE7C046C046BD460EB0B0BD5005002015
:1013E8004C050020000800500805002018050020C2
:1013F80038050020708200084805002080B582B0BA
:1014080000AF0200FB1D1A70FB1D1B78012B01D9D0
:1014180000233DE0FB1D1B781F4ADB00D31818682A
:101428005968FB1D1B781D4ADB00D3181A685B68D6
:10143800801A994102000B00002B02D115D1092A0C
:1014480013D9FB1D1B78144ADB00D1180022002396
:101458000A604B60FB1D1B78104ADB00D118002284
:1014680000230A604B60012312E0FB1D1B780A4A27
:10147800DB00D118002200230A604B60FB1D1B789B
:10148800064ADB00D118002200230A604B600023C3
:101498001800BD4602B080BD1805002028050020B0
:1014A80080B582B000AF0200FB1D1A70FB1D1B78CF
:1014B800012B01D900230DE0FB1D1B78074AD35CE3
:1014C800002B06D0FB1D1B78044A0021D1540123B0
:1014D80000E000231800BD4602B080BD480500208A
:1014E800B0B594B000AF01003A607B600F243B199F
:1014F8000A1C1A703B687A68134328D03A687B68DC
:10150800BA64FB6414257B1900221A6004332E2266
:101518000021180006F0CFF93A687B680E4978195F
:1015280006F0D2F97B1932221900022000F074FC6F
:101538003B191B78094ADB00D118BA6CFB6C0A60AE
:101548004B603B191B78064A0021D15400E0C04685
:10155800BD4614B0B0BDC0467082000838050020F2
:101568004805002080B582B000AF0200FB1D1A704C
:10157800FB1D1B78044ADB00D3181A685B6813004C
:101588001800BD4602B080BD0805002090B583B0A4
:1015980000AFFC1D124B0821180003F071F903007D
:1015A8002370FB1D1B78012B08D180239900A023F1
:1015B800DB050122180003F080F90BE0FB1D1B7806
:1015C800002B07D180239900A023DB0500221800F7
:1015D80003F073F9FB1D1B781800BD4603B090BDDE
:1015E8000004005080B500AF044B1021180003F030
:1015F80047F903001800BD4680BDC04600040050EE
:1016080090B583B000AFFC1D104B2021180003F0EB
:1016180037F903002370FB1D1B78012B06D10C4BF7
:1016280001228021180003F048F909E0FB1D1B780E
:10163800002B05D1064B00228021180003F03DF94C
:10164800FB1D1B781800BD4603B090BD0004005078
:101658000008005080B500AF044B4021180003F08B
:101668000FF903001800BD4680BDC04600040050B5
:1016780080B500AF002000F0FFF8031C181CBD4621
:1016880080BD80B500AF012000F0F6F8031C181CDF
:10169800BD4680BD80B500AF0020FFF7AFFE030058
:1016A8001800BD4680BD80B500AF0120FFF7A6FE3B
:1016B80003001800BD4680BD80B582B000AF0200AF
:1016C800FB1D1A70FB1D1B78012B07D180239B0182
:1016D8000D480122190003F0F0F80AE0FB1D1B7801
:1016E800002B06D180239B0107480022190003F034
:1016F800E4F8FB1D1B7805481A00402103F0DDF8CB
:10170800C046BD4602B080BD00040050000800502D
:1017180080B582B000AF0200FB1D1A70FB1D1B785C
:10172800012B07D180231B020E480122190003F068
:10173800C4F80AE0FB1D1B78002B06D180231B028E
:1017480008480022190003F0B8F8FB1D1A78802316
:101758005900A023DB05180003F0AFF8C046BD46CA
:1017680002B080BD0004005080B582B000AF020016
:10177800FB1D1A70FB1D1A7880239B000348190073
:1017880003F09BF8C046BD4602B080BD000800507B
:1017980080B582B000AF0200FB1D1A70FB1D1A78DD
:1017A80080231901A023DB05180003F086F8C04642
:1017B800BD4602B080BD80B582B000AF0200FB1DFF
:1017C8001A70FB1D1A7880231902A023DB05180064
:1017D80003F073F8C046BD4602B080BD80B582B044
:1017E80000AF0200FB1D1A70FB1D1A7880231B0135
:1017F8000348190003F061F8C046BD4602B080BD39
:101808000004005080B500AF044B4021180003F0DD
:1018180037F803001800BD4680BDC04600080050D8
:1018280080B500AF80235A00A023DB051100180003
:1018380003F026F803001800BD4680BD80B500AF50
:1018480080239B00044A1900100003F019F80300D4
:101858001800BD4680BDC0460008005080B500AFE6
:1018680080231A01A023DB051100180003F008F8F3
:1018780003001800BD4680BD80B582B000AF0200ED
:10188800FB1D1A70FB1D1B78012B01D9034B01E0CE
:10189800034B1B68181CBD4602B080BD000080BF0A
:1018A8005405002080B582B000AF78607868FEF7F4
:1018B800C3FD021C024B1A60C046BD4602B080BD83
:1018C8005405002080B584B000AF0F23FB18012217
:1018D8001A703B0018000C231A00002105F0EBFFDA
:1018E800184B180001F0B2FF031E01D001F062F995
:1018F8003B0001221A603B0000225A603B00002294
:101908009A603A000F4B1100180002F047F9031EC5
:1019180001D001F04FF93B000B4A1A603B0004224A
:101928005A603A00074B1100180002F037F9031EFD
:1019380001D001F03FF90F23FB181B781800BD46B2
:1019480004B080BD4800002002000004B0B58AB091
:1019580000AF27257B1901221A7010243B191800A3
:1019680014231A00002105F0A6FF5D4B5A6B5C4B4F
:1019780001210A435A635A4B5B6B01221340FB60F7
:10198800FB68574B5A6B564B04210A435A63544B16
:101998005B6B04221340BB60BB68514B5A6B504BC6
:1019A80002210A435A634E4B5B6B022213407B6051
:1019B8007B684B4B5A6B4A4B08210A435A63484B86
:1019C8005B6B082213403B603B68A8231B02454819
:1019D8000022190002F071FF8B231902A023DB05F6
:1019E8000022180002F069FFB0239B003E48002245
:1019F800190002F062FF3B1904221A603B19002209
:101A08005A603B1902229A603A19A023DB0511009B
:101A1800180002F0D1FD3B1910221A603B19002270
:101A28005A603B1902229A603B192F4A190010008C
:101A380002F0C2FD21007B18A82212021A600C00D5
:101A48003B1901225A603B1900229A603B19002277
:101A5800DA603B19234A1900100002F0ADFD21009D
:101A68007B188B2212021A600C003B1901225A6063
:101A78003B1900229A603B190022DA603A19A02328
:101A8800DB051100180002F097FD21007B18B02239
:101A980092001A600C003B1901225A603B1900227F
:101AA8009A603B190022DA603B190F4A19001000AE
:101AB80002F082FD21007B1878221A607B18002230
:101AC8005A607B1800229A607B18064A1900100099
:101AD80002F072FD7B191B781800BD460AB0B0BD34
:101AE80000100240000400500008005080B588B083
:101AF80000AF1023FB18180010231A00002105F06E
:101B0800DAFE3B1D18000C231A00002105F0D3FE55
:101B1800194B180003F0F4FB031E01D001F04AF83A
:101B280010217B18802252011A607A18124B11007A
:101B3800180003F0C5FD031E01D001F03BF83B1D62
:101B480000221A603B1D00229A603A1D0A4B1100C0
:101B5800180003F0BDFF031E01D001F02BF8064B5F
:101B6800180003F025FC031E01D001F023F801231F
:101B78001800BD4608B080BDAC00002080B582B01A
:101B880000AF78603960074B7A6892003968D150A5
:101B9800054B7A6892000021D150C046BD4602B07C
:101BA80080BDC046B4050020DC05002080B582B0A9
:101BB80000AF7860084B7A689200D358002B06D0A3
:101BC800054B7A6892000021D150012300E00023E0
:101BD8001800BD4602B080BDDC05002080B582B08B
:101BE80000AF00237B601CE0124B7A689200D35848
:101BF800002B13DD0F4B7A689200D358591E0D4BFA
:101C08007A689200D1500B4B7A689200D358002B17
:101C180004D1094B7A6892000121D1507B680133C5
:101C28007B607B68092BDFDDC046C046BD4602B03D
:101C380080BDC046B4050020DC05002080B582B018
:101C480000AF78607B681A68054B1B689A4203D11D
:101C5800FFF7C4FF00F0B4FFC046BD4602B080BD28
:101C6800AC00002080B582B000AFFB1D01221A70C5
:101C7800604B180003F0ACFF031E05D1FB1D1B7859
:101C8800002B01D0012200E00022FB1D1A701A78F7
:101C980001210A401A70584B180003F099FF031EDF
:101CA80005D1FB1D1B78002B01D0012200E000228A
:101CB800FB1D1A701A7801210A401A704F4B180040
:101CC80003F086FF031E05D1FB1D1B78002B01D0F6
:101CD800012200E00022FB1D1A701A7801210A4037
:101CE8001A70474B180003F073FF031E05D1FB1D44
:101CF8001B78002B01D0012200E00022FB1D1A7086
:101D08001A7801210A401A703E4B5B6801211800BD
:101D180000F040F9031E05D0FB1D1B78002B01D0F5
:101D2800012200E00022FB1D1A701A7801210A40E6
:101D38001A70344B1B690221180000F02BF9031E9E
:101D480005D0FB1D1B78002B01D0012200E00022EA
:101D5800FB1D1A701A7801210A401A70294BDB6999
:101D68000121180000F016F9031E05D0FB1D1B7891
:101D7800002B01D0012200E00022FB1D1A701A7806
:101D880001210A401A701F4B9B6A0121180000F0BC
:101D980001F9031E05D0FB1D1B78002B01D0012281
:101DA80000E00022FB1D1A701A7801210A401A70FF
:101DB800144B1B6814490122180003F0FBFF114B58
:101DC800DB6812490122180003F0F4FF0D4B9B69F0
:101DD8000F490122180003F0EDFF0A4B5B6A0D4919
:101DE8000122180003F0E6FFFB1D1B781800BD4612
:101DF80002B080BDF80000208C01002020020020E5
:101E0800B402002048030020500300205C03002097
:101E1800680300207403002080B584B000AFB96067
:101E28007A600F217B18021C1A707B181A780849EF
:101E380013005B009B189B0058587B689AB2054BAF
:101E4800B96803F01BFFC0461800BD4604B080BD4A
:101E580048030020FFFF000090B585B000AF0200E6
:101E6800FB1D1A70FB1D1A78094913005B009B18AB
:101E78009B00CB1804331B680F243A191100180073
:101E880000F0ECF83B191B781800BD4605B090BD72
:101E98004803002080B582B000AF78607B681A687C
:101EA800364B1B681B689A4213D1344B5B68344A23
:101EB8001100180000F09AF8304B1B6830490122D5
:101EC800180003F077FF2F4B1B685A1C2D4B1A6024
:101ED8004FE07B681A68294BDB681B689A4213D16C
:101EE800264B1B69284A1100180000F07FF8234B85
:101EF800DB6825490122180003F05CFF214B5B6871
:101F08005A1C204B5A6034E07B681A681B4B9B694B
:101F18001B689A4213D1194BDB691C4A110018003F
:101F280000F064F8154B9B6918490122180003F06A
:101F380041FF144B9B685A1C124B9A6019E07B684E
:101F48001A680E4B5B6A1B689A4212D10B4B9B6A4C
:101F58000F4A1100180000F049F8084B5B6A0C4959
:101F68000122180003F026FF064BDB685A1C054BBC
:101F7800DA60C046BD4602B080BDC04648030020B6
:101F880050030020040600205C03002068030020A2
:101F98007403002080B582B000AF78600A00BB1CD3
:101FA8001A807A6880231B010021D1507B680C4A73
:101FB800002199507B680B4A002199507B68BA1C14
:101FC800094912885A527B688022120100211800A0
:101FD80005F071FC01231800BD4602B080BDC04663
:101FE80004080000080800000C08000080B584B050
:101FF80000AF786039603B68BB607B68180000F010
:10200800A3F8031E01D0002322E00023FB6017E0A1
:10201800BA68FB68D218796880231B01CB581178FD
:102028007A68D1547A6880231B01D35801335B0541
:10203800590D7A6880231B01D150FB680133FB607E
:102048007B68054A9B5A1A00FB689342E0D3012338
:102058001800BD4604B080BD0C08000080B584B0EF
:1020680000AF786039603B68BB607B68180000F09F
:1020780031F803001A0001235340DBB2002B01D0D2
:1020880000231FE00023FB6014E07B680F4A9A5886
:10209800B968FB68CB1879688A5C1A707B680B4A48
:1020A8009B5801335B055A0D7B6808495A50FB68F9
:1020B8000133FB607B68064A9B5A1A00FB6893420F
:1020C800E3D301231800BD4604B080BD0408000016
:1020D8000C08000080B582B000AF78607A68802371
:1020E8001B01D2587B6816495B589A4210D37A680C
:1020F80080231B01D2587B6811495B58D21A7B6830
:1021080010495B5A190000238A425B41DBB212E096
:102118007A6880231B01D2587B6809495B58D31A17
:10212800802212019A187B6806495B5A190000231D
:102138008A425B41DBB21800BD4602B080BDC04692
:10214800040800000C08000080B582B000AF786079
:102158007A6880231B01D2587B6816495B589A42DB
:1021680013D37B68134A9A58796880231B01CB588C
:10217800D31A802212019A187B680F495B5A1900FA
:10218800002391425B41DBB20FE07B68094A9A5811
:10219800796880231B01CB58D21A7B6806495B5AA1
:1021A8001900002391425B41DBB21800BD4602B022
:1021B80080BDC046040800000C080000F0B595B0CA
:1021C80002AFD64B9B68002B01DC00F0E4FBD34B3D
:1021D8009B685A1ED14B9A60D14B1B68002B03D0C9
:1021E800012B1AD000F0D0FB0220FFF735FE0300C8
:1021F800212B01D000F0D1FBCA4B21221A70CA4B07
:1022080001221A60C64B01221A60FA235B001900EA
:102218000220FFF7B3FC00F0C0FBC34B1B680B2B7D
:1022280005DDC14B00221A60BD4B00221A60BE4B6F
:102238001E680220FFF710FE03001A00B94B9A55DA
:10224800B94B1B68B74AD35C232B00D051E3B64B7C
:102258001B681A00B34B19000220FFF7DDFDB34BD2
:10226800032219000220FFF7D7FDAE4B5B78452B00
:1022780003D1AF4B00221A6035E3AA4B5B78532B8E
:1022880000D019E1A74B9B78302B11D1A94B9B6942
:1022980001209847A74B9B68984703001C00A64A53
:1022A800A649A748A74B0093230005F00DFB32E091
:1022B8009C4B9B78312B11D19E4BDB6B01209847AF
:1022C8009C4BDB6A984703001C009F4A9B499C482B
:1022D8009C4B0093230005F0F7FA1CE0914B9B7888
:1022E800322B0AD1934B9B6900209847974A98490B
:1022F800934B180005F0E8FA0DE08A4B9B78332BD6
:1023080009D18C4BDB6B00209847924A90498C4B43
:10231800180005F0D9FA834B9B78342B0AD1854BEA
:10232800DB69012098478C4A8949854B180005F0DC
:10233800CBFA2BE07B4B9B78352B0AD17D4B1B6C62
:1023480001209847854A82497D4B180005F0BCFA60
:102358001CE0744B9B78362B0AD1764BDB69002046
:1023680098477F4A7A49764B180005F0ADFA0DE098
:102378006C4B9B78372B09D16E4B1B6C0020984710
:10238800784A73496E4B180005F09EFA654B9B78A6
:10239800382B0DD180239B0173480022190002F0CD
:1023A8008CFA724A6A49664B180005F08DFA34E0D7
:1023B8005C4B9B78392B0DD180231B026A48002285
:1023C800190002F07AFA6A4A61495D4B180005F073
:1023D8007BFA22E0534B9B78412B0DD180239B0144
:1023E80061480122190002F068FA624A5849544BC0
:1023F800180005F069FA10E04A4B9B78422B0CD183
:1024080080231B0258480122190002F056FA5A4A42
:102418004F494B4B180005F057FA424B9B78432B1A
:102428000ED180239900A023DB050022180002F0BA
:1024380044FA524A4649424B180005F045FA33E03F
:10244800384B9B78442B0CD14D4B0022802118002F
:1024580002F033FA4B4A3E49394B180005F034FA7A
:1024680022E0304B9B78452B0ED180239900A02386
:10247800DB050122180002F020FA434A3449304BA8
:10248800180005F021FA0FE0264B9B78462B0BD15C
:102498003B4B01228021180002F00FFA3B4A2C49DD
:1024A800274B180005F010FA214B01221A6064210D
:1024B8000020FFF763FB16E21A4B5B78522B00D023
:1024C80084E0184B9B78302B0AD11A4B1B6A0020EA
:1024D80098472F4A1E492F4B180005F0F5F96DE073
:1024E800104B9B78312B0AD1124B5B6C002098471C
:1024F800294A1749274B180005F0E6F95EE0094B11
:102508009B78322B4CD10B4B1B6A01209847234AEE
:102518000F49204B180005F0D7F94FE004060020BA
:1025280054260020602600205C26002074820008C3
:1025380058260020000000207882000888820008C1
:102548006C2600209482000898820008A88200085F
:10255800C0820008C4820008D8820008EC82000803
:102568000083000814830008000400502883000832
:1025780038830008488300085883000868830008E7
:102588000008005074830008808300088C830008CA
:1025980098830008A0260020A4830008B0830008C0
:1025A800E04B9B78332B09D1DF4B5B6C01209847BC
:1025B800DE4ADF49DF4B180005F086F9DE4B0222C0
:1025C8001A6064210020FFF7D9FA8CE1D54B5B78BB
:1025D800542B00D097E0D34B9B78302B10D1D24BA3
:1025E8001B689847031C181CFDF706FF0400D34A14
:1025F800D349D448D44B0093230005F065F97AE019
:10260800C84B9B78312B10D1C74B5B6A9847031C8A
:10261800181CFDF7F1FE0400CC4AC949C948CA4B49
:102628000093230005F050F965E0BE4B9B78532BCF
:1026380061D1C74BFB612F2318229B18DB1900229D
:102648001A7001220023BA63FB63C24B1B68013B6B
:102658007B633AE07B6BFA69D3181B782F2B31D94F
:102668007B6BFA69D3181B78392B2BD87B6BFA69EB
:10267800D3181B78303BBB60DB17FB60397ABA6B29
:10268800FB6B131CDBB24B43D9B22F221820131853
:10269800DB191218D21912788A181A70B86BF96BEC
:1026A80002000B00940F9D007D617D6925437D61CB
:1026B80093003B613A697B6912184B4192185B4160
:1026C800BA63FB637B6B013B7B637B6B002BC1DADB
:1026D8002F2418256319DB191B781800FFF7E2F877
:1026E8006319DB191C789C4A95499648964B0093C8
:1026F800230005F0E9F8904B03221A6064210020BA
:10270800FFF73CFAEFE0874B5B78462B28D1854BE7
:102718009B78302B0CD10020FEF724FF04008F4A51
:1027280087498F48884B0093230005F0CDF80FE0C8
:102738007C4B9B78312B0BD10120FEF713FF040053
:10274800884A7F498648804B0093230005F0BCF8EF
:10275800794B04221A6064210020FFF70FFAC2E0C7
:10276800704B5B78572B36D16E4B9B78302B13D13F
:102778006D4B1B69984703001D006B4B5B699847BD
:1027880003001C00784A794979486F4B01930094FB
:102798002B0005F099F816E0624B9B78312B12D18B
:1027A800614B5B6B984703001D005F4B9B6B984721
:1027B80003001C006F4A6D496D48634B01930094F8
:1027C8002B0005F081F85C4B05221A60642100207B
:1027D800FFF7D4F987E0534B5B784C2B00D082E0AD
:1027E8005B4B3B621B2318229B18DB1900221A70D3
:1027F80001220023BA62FB62564B1B68013B7B62D5
:1028080036E07B6A3A6AD3181B782F2B2DD97B6A5E
:102818003A6AD3181B78392B27D87B6A3A6AD318B7
:102828001B78303B3B60DB177B603978BA6AFB6A00
:10283800131CDBB24B43D9B21B2218201318DB1927
:102848001218D21912788A181A70B86AF96A02002E
:102858000B00960F9D003543940002000B001219DF
:102868006B4192185B41BA62FB627B6A013B7B62F7
:102878007B6A002BC5DA2B4B9B78302B14D11B2499
:1028880018256319DB191B7800211800FDF7CAFE0B
:102898006319DB191C78384A294938482A4B0093B0
:1028A800230005F011F817E01E4B9B78312B13D14C
:1028B8001B2418256319DB191B7801211800FDF763
:1028C800B1FE6319DB191C782D4A1D492B481E4B94
:1028D8000093230004F0F8FF174B06221A606421C6
:1028E8000020FFF74BF91B4B00221A60254B0022F2
:1028F8001A60184B1B680B4AD35C212B0BD1094B70
:1029080021221A70134B01221A60FA235B00190066
:102918000220FFF733F90F4B1B685A1C0D4B1A6046
:102928003CE0C0466026002000000020C08300086C
:10293800C0820008A026002058260020D083000866
:1029480088820008D426002094820008DC830008CE
:10295800632600205C260020E8830008F483000832
:102968000827002004840008148400082484000830
:102978003C27002034840008448400087027002085
:102988005484000854260020064B0922190002200E
:10299800FFF742FA02E0C04600E0C046C046BD4626
:1029A80013B0F0BD6484000880B500AF444B1B68C9
:1029B800062B00D971E09A00424BD3181B689F463A
:1029C8000020FFF7F3F8031E00D16AE03E4B3222E5
:1029D80019000220FFF720FAFA235B0019000020F3
:1029E800FFF7CCF85DE00020FFF7E0F8031E5AD0AF
:1029F800364B322219000220FFF70EFAFA235B0049
:102A080019000020FFF7BAF84DE00020FFF7CEF8D4
:102A1800031E4AD02E4B322219000220FFF7FCF980
:102A2800FA235B0019000020FFF7A8F83DE000201A
:102A3800FFF7BCF8031E3AD0264B322219000220B9
:102A4800FFF7EAF9FA235B0019000020FFF796F870
:102A58002DE00020FFF7AAF8031E2AD01E4B3222D1
:102A680019000220FFF7D8F9FA235B0019000020AB
:102A7800FFF784F81DE00020FFF798F8031E1AD02E
:102A8800164B322219000220FFF7C6F9FA235B0021
:102A980019000020FFF772F80DE0C0460CE0C046B0
:102AA8000AE0C04608E0C04606E0C04604E0C0466A
:102AB80002E0C04600E0C046C046BD4680BDC046F4
:102AC80058260020888400086C260020A0260020B4
:102AD800D4260020082700203C270020702700204B
:102AE80080B500AF00F038FBFFF768FBFFF75CFF2D
:102AF800C046BD4680BD80B500AF00F023FDFFF79E
:102B0800B1F8FEF7F3FFFEF7DDFEFEF71FFFFDF756
:102B18001BFD00F007F8FDF7A3FDFDF7C2FDFFF769
:102B2800DFFFF8E790B593B000AF14243B19180005
:102B380034231A00002104F0BEFE3B1D18001023A8
:102B48001A00002104F0B7FE80239B00180001F052
:102B5800D1FE3B1902221A603B1980225200DA602A
:102B68003B1900221A613B1940225A613B19002285
:102B7800DA613B19180001F009FF031E01D000F0CB
:102B880019F83B1D07221A603B1D00225A603B1DA5
:102B980000229A603B1D0022DA603B1D00211800CC
:102BA80002F004FA031E01D000F004F8C046BD4646
:102BB80013B090BD80B500AF72B6C046FEE7000006
:102BC80080B500AF0F4B1B685A1C0E4B1A600E4B9A
:102BD8001B68002B13D00C4B1B7B002B0FD10A4B0F
:102BE8005B68002B04D0084B5B685A1E064B5A6082
:102BF800054B5B68002B02D1034B01221A73C046B8
:102C0800BD4680BDC82A0020A4270020B0B588B0E2
:102C180000AFF860B9607A601F217B1800221A7033
:102C28000023BB6100233B617B1800221A705DE121
:102C38001F203B181A78B74913009B009B189B006C
:102C4800CB1804331B68BA69D318BB61BA69BB686F
:102C58009A4200D8DAE03B181A78AE4913009B0074
:102C68009B189B00CB1804331A68BB69D31ABA683F
:102C7800D3183B613B181A78B969BB68C91AA548CB
:102C880013009B009B189B00C3180433196017237B
:102C9800FB1827221A7055E017243B191B78591E78
:102CA8003B191A789B480B009B005B189B0018582F
:102CB800984913009B009B189B0058503B191B78A0
:102CC800591E3B191A7893480B009B005B189B0010
:102CD800C318083319688F4813009B009B189B0082
:102CE800C318083319603B191B78591E3B191A7809
:102CF80088480B009B005B189B00C31804331968B5
:102D0800844813009B009B189B00C3180433196068
:102D18003B191B78591E3B191A787E480B009B00FB
:102D28005B189B00C318103319687A4813009B007E
:102D38009B189B00C318103319603B191A783B196C
:102D4800013A1A701723FA181F203B1812781B78BB
:102D58009A42A1D83B181A786E4913009B009B1819
:102D68009B00FA685A503B181A786A4913009B006E
:102D78009B189B00CB1804333A691A603B181A78E1
:102D8800644913009B009B189B00CB1808337A6892
:102D98001A603B181A785F4913009B009B189B0028
:102DA800CB1804331B68002B0BD13B181A785949F0
:102DB80013009B009B189B00CB180C3301221A7040
:102DC8000BE01F23FB181A78524913009B009B182D
:102DD8009B00CB180C3300221A701F257B191C7816
:102DE80000F0E6F901004B4A23009B001B199B00E9
:102DF800D318103319607B191A78464913009B00C1
:102E08009B189B00CB1810331B687FE01F243B19CD
:102E18001A78404913009B009B189B005B58002BB5
:102E28005ED13B191A783B4913009B009B189B0005
:102E3800FA685A503B191A78B968BB69C91A3548F3
:102E480013009B009B189B00C318043319602000D3
:102E58003B181A782F4913009B009B189B00CB182E
:102E680008337A681A603B181A782A4913009B00BD
:102E78009B189B00CB1804331B68002B0BD13B1805
:102E88001A78244913009B009B189B00CB180C331D
:102E980001221A700BE01F23FB181A781D49130032
:102EA8009B009B189B00CB180C3300221A701F251F
:102EB8007B191C7800F07CF90100164A23009B005E
:102EC8001B199B00D318103319607B191A78114904
:102ED80013009B009B189B00CB1810331B6815E050
:102EE8001F217B181A787B1801321A701F22BB1811
:102EF8001B78272B00D89BE6BB181A7805491300C6
:102F08009B009B189B00CB1810331B681800BD460C
:102F180008B0B0BDA427002090B585B000AF786098
:102F28000D23FB1800221A707B68002B00D109E1E1
:102F38000F23FB1800221A70FEE00F203B181A78A6
:102F4800844913009B009B189B00CB1810331B6807
:102F58007A689A4200D0E9E00D23FB1801221A7022
:102F68003B181B78002B30D03B181B78262B2CD80D
:102F78003B181B785A1C774913009B009B189B0031
:102F88005B58002B21D03B181B785A1C7149130041
:102F98009B009B189B00CB180433196804003B184E
:102FA8001A786C4813009B009B189B00C3180433C5
:102FB8001B683A1912780132C918664813009B0039
:102FC8009B189B00C318043319600E23FB180F22AB
:102FD800BA1812781A706BE00E243B191B78591C2A
:102FE8003B191A785B480B009B005B189B0018582C
:102FF800584913009B009B189B0058503B191B789D
:10300800591C3B191A7853480B009B005B189B000E
:10301800C318083319684F4813009B009B189B007E
:10302800C318083319603B191B78591C3B191A78C7
:1030380048480B009B005B189B00C31804331968B1
:10304800444813009B009B189B00C3180433196065
:103058003B191B78591C3B191A783E480B009B00FA
:103068005B189B00C3180C3318783A4913009B006F
:103078009B189B00CB180C33021C1A703B191B7849
:10308800591C3B191A7833480B009B005B189B00AE
:10309800C318103319682F4813009B009B189B0016
:1030A800C318103319603B191A783B1901321A708A
:1030B8000E203B181B78262B8ED93B181A782549E9
:1030C80013009B009B189B0000225A503B181A784B
:1030D800204913009B009B189B00CB180833002243
:1030E8001A603B181A781B4913009B009B189B0019
:1030F800CB18043300221A603B181A7815491300BC
:103108009B009B189B00CB180C3300221A703B18AD
:103118001A78104913009B009B189B00CB1810339A
:1031280000221A600D23FB181B780EE00F217B1874
:103138001A787B1801321A700F23FB181B78272B7B
:1031480000D8FAE60D23FB181B781800BD4605B019
:1031580090BDC046A427002090B587B000AF134BA0
:103168001B7B002B1DD0114B1B6898470F4B00226F
:103178001A733B1D0D4A13CA13C303CA03C33B1D6D
:103188001B691800FFF7C8FE3B1D9B68002B08D081
:103198003B1D18683B1D99683B1D9B681A00FFF78B
:1031A80035FDC046BD4607B090BDC046A4270020E7
:1031B80080B500AF094B1B685A1C084B1A60074BB7
:1031C8001B68002B04D1054B1B685A1C034B1A6063
:1031D800024B1B681800BD4680BDC046C42A0020AB
:1031E80080B582B000AF0F4B1A6C0E4B01210A4319
:1031F8001A640C4B1B6C012213407B607B68094BE3
:10320800DA6B084B802149050A43DA63054BDA6B10
:1032180080235B0513403B603B68C046BD4602B057
:1032280080BDC0460010024090B58BB000AF7860FA
:1032380014243B19180014231A00002104F03BFB46
:103248007B681B682D4A934254D12D4B1A6C2C4B2A
:10325800802149030A431A64294B1A6C80235B03B3
:1032680013403B613B69264B5A6B254B01210A43AE
:103278005A63234B5B6B01221340FB60FB683B19CD
:1032880003221A603B1903225A603B1900229A60F4
:103298003A19A023DB051100180001F08DF9194B2C
:1032A800194A1A60174B05225A60164B00229A6079
:1032B800144B0022DA60134B80221A61114B8022D2
:1032C80052005A610F4B8022D2009A610D4B0022A6
:1032D800DA610C4B00221A620A4B180000F014FF46
:1032E800031E01D0FFF766FC7B68064A1A65054B8A
:1032F8007A689A62C046BD460BB090BD0024014072
:1033080000100240580500200800024080B584B033
:1033180000AF78607B681B680D4A934213D10D4B50
:10332800DA6B0C4B02210A43DA630A4BDB6B02228D
:103338001340FB60FB6800220021102000F0B2FE61
:10334800102000F0C4FEC046BD4604B080BDC04693
:10335800000400400010024090B58BB000AF7860C8
:1033680014243B19180014231A00002104F0A3FAAE
:103378007B681B681F4A934238D11F4BDA6B1E4B80
:103388008021C9020A43DA631B4BDA6B8023DB0214
:1033980013403B613B69184B5A6B174B08210A4392
:1033A8005A63154B5B6B08221340FB60FB683B19A3
:1033B800C02292001A6021007B1802225A607B18F2
:1033C80000229A607B180022DA607B1800221A61BA
:1033D8007B180A4A1900100001F0EEF800220021BB
:1033E8001D2000F05FFE1D2000F071FEC046BD46A6
:1033F8000BB090BD0048004000100240000C005087
:1034080080B500AFFEE780B500AFFEE780B500AF3E
:10341800C046BD4680BD80B500AFC046BD4680BD34
:1034280080B500AF00F0F8F8C046BD4680BD00008A
:1034380080B500AF034B180000F0BCFFC046BD4686
:1034480080BDC0465805002080B500AF034B18006A
:1034580002F004F8C046BD4680BDC046AC0000205E
:1034680080B500AF034B180002F0FCFCC046BD4617
:1034780080BDC0462002002080B586B000AF7860CD
:10348800144A154BD31A7B617B693B61134B1B684C
:10349800002B02D1114B124A1A60104B1A687B6834
:1034A800D3183A699A4207D204F0D2F903000C22E1
:1034B8001A6001235B4209E0084B1B68FB60074B5D
:1034C8001A687B68D218054B1A60FB681800BD465D
:1034D80006B080BD0090002000040000CC2A002027
:1034E800E82A002080B500AFC046BD4680BD000078
:1034F8000D488546FFF7F6FF0C480D490D4A002395
:1035080002E0D458C4500433C4188C42F9D30A4A90
:103518000A4C002301E013600432A242FBD304F0FA
:103528009DF9FFF7E8FAFEE7009000200000002070
:10353800E803002058850008E8030020E42A00205A
:10354800FEE7000080B582B000AFFB1D00221A70B4
:103558000B4B1A680A4B802149000A431A60032062
:1035680000F010F8031E03D0FB1D01221A7001E0C1
:10357800FFF736FEFB1D1B781800BD4602B080BD64
:103588000020024090B585B000AF78600F23FB188B
:1035980000221A701D4B1B78002B2BD01C4B1C686B
:1035A8001A4B1B781900FA239800FCF7AFFD0300AB
:1035B80019002000FCF7AAFD0300180000F097FD91
:1035C800031E12D17B68032B0AD8796801235B425A
:1035D8000022180000F066FD0E4B7A681A600DE0B4
:1035E8000F23FB1801221A7008E00F23FB18012291
:1035F8001A7003E00F23FB1801221A700F23FB181F
:103608001B781800BD4605B090BDC0468003002059
:10361800780300207C03002080B500AF054B1B78A1
:103628001A00054B1B68D218034B1A60C046BD46EA
:1036380080BDC04680030020D02A002080B500AF9E
:10364800024B1B681800BD4680BDC046D02A00202A
:1036580080B582B000AF786039607B681B68054A26
:103668001A403B681A437B681A60C046BD4602B0E0
:1036780080BDC046FFFF3FFE80B582B000AF7860D6
:103688007B681A68E0235B0413401800BD4602B04B
:1036980080BD80B584B000AFF860B9607A60FB681F
:1036A8005B69BA6804210A40072191400A00D243A5
:1036B8001A40BB6804210B40796899400B001A43F3
:1036C800FB685A61C046BD4604B080BD80B582B073
:1036D80000AF786039607B685B693A6804210A400A
:1036E800072191400A001A403B6804210B40DA4048
:1036F80013001800BD4602B080BD80B584B000AF8D
:10370800F860B9607A60FB689B6ABA681F210A4052
:103718000F2191400A00D2431A407B689B0E0F216B
:103728001940BB681F20034099400B001A43FB68EF
:103738009A62C046BD4604B080BD80B582B000AF75
:10374800786039607B689A6A3B685B035B0B1A4355
:103758007B689A62C046BD4602B080BD80B582B023
:1037680000AF786039607B689B6A3A685203520BF5
:10377800D2431A407B689A62C046BD4602B080BDFB
:1037880080B584B000AFF860B9607A60FB685B69A7
:10379800BA681202D2431A40BB681B0279680B4010
:1037A80004490B401A43FB685A61C046BD4604B041
:1037B80080BDC04600FFFF0780B582B000AF7860CB
:1037C8007B689B68054A1340802252051A437B6830
:1037D8009A60C046BD4602B080BDC046E8FFFF6F94
:1037E80080B582B000AF78607B689A6880235B05FB
:1037F8001A4080235B059A4201D1012300E000238F
:103808001800BD4602B080BD80B582B000AF7860B8
:103818007B689B6801221340012B01D1012300E042
:1038280000231800BD4602B080BD80B582B000AF4D
:1038380078607B689B6804221340042B01D1012324
:1038480000E000231800BD4602B080BD80B588B0F6
:1038580000AF78601F23FB1800221A700023BB6199
:1038680000237B610023FB607B68002B01D10123CF
:103878007FE17B689B6D002B0AD17B681800FFF7FE
:10388800D3FC7B680022DA657B68542200219954B6
:103898007B681B681800FFF7A3FF031E15D17B6820
:1038A8001B681800FFF788FFB44B1B68B449180061
:1038B800FCF72CFC030001335B00FB6002E0FB68B3
:1038C800013BFB60FB68002BF9D17B681B68180083
:1038D800FFF786FF031E0FD17B689B6D10221A43EA
:1038E8007B689A657B68DB6D01221A437B68DA6521
:1038F8001F23FB1801221A707B681B681800FFF74A
:1039080094FF03003B617B689B6D1022134000D03D
:1039180022E13B69002B00D01EE17B689B6D994A30
:10392800134002221A437B689A657B681B6818005B
:10393800FFF76AFF031E00D0ADE07B689A687B68DA
:103948001B7E9B031A437B685B7EDB031A437B6801
:103958009B7E5B031A437B681B6B002B02D0802382
:103968005B0100E000231A437B68DB681A437B682D
:103978001B69002B04DA7B681B695B005B0801E0AC
:1039880080239B031A437B682C215B5C5B001343F9
:10399800BA691343BB617B6820229B5C012B15D15C
:1039A8007B689B7E002B05D1BB69802252021343A2
:1039B800BB610BE07B689B6D20221A437B689A658C
:1039C8007B68DB6D01221A437B68DA657B685B6A7A
:1039D800002B0AD07B685A6AE0235B001A407B6898
:1039E8009B6A1343BA691343BB617B681B68DB6836
:1039F800654A134019007B681B68BA690A43DA6094
:103A08007B685B689B0F9A077B68DB6C13437A695A
:103A180013437B617B683C229B5C012B11D17B6843
:103A28005B689B0F9A077B681B6C1A437B685B6C0F
:103A38001A437B689B6C1A437B6913430122134327
:103A48007B617B681B681B69504A134019007B68BF
:103A58001B687A690A431A617B685A68C0231B0687
:103A68009A4218D07B685A688023DB059A4212D0A4
:103A78007B685A6880231B069A420CD0444B1B680B
:103A8800444A134019007B685A68F0239B031A4084
:103A98003F4B0A431A607B6818687B685B6B1A00A7
:103AA8000021FFF7F6FD7B6818687B689B6B3A4935
:103AB8001A00FFF7EEFD7B681B69002B09D17B68B4
:103AC8001B689A6A7B681B68102149420A439A62FC
:103AD80018E07B681A6980239B039A4212D17B689D
:103AE8001B689B6A7B68DB69013B9B001C221340B7
:103AF800102252429A4011007B681A6E7B681B683C
:103B08000A439A627B681B6800211800FFF7DEFDF4
:103B180002007B685B6B9A420BD17B680022DA65F6
:103B28007B689B6D0322934301221A437B689A6545
:103B38001CE07B689B6D1222934310221A437B681A
:103B48009A657B68DB6D01221A437B68DA651F235F
:103B5800FB1801221A7009E07B689B6D10221A433A
:103B68007B689A651F23FB1801221A701F23FB1814
:103B78001B781800BD4608B080BDC04678030020F9
:103B8800400D0300FDFEFFFF0102FEFF02FCFF1FC8
:103B980008270140FFFFC3FF04FFFF0780B586B079
:103BA80000AF786039601723FB1800221A700023D1
:103BB800FB607B6854229B5C012B01D10223C0E18E
:103BC8007B685422012199547B681B681800FFF711
:103BD8002CFE031E00D0A3E13B685B68022B00D1DA
:103BE80043E17B681A6980231B069A4204D07B68EC
:103BF8001B69C14A934208D17B681A683B681B68F5
:103C080019001000FFF799FDC9E07B681A6E3B6840
:103C18005B681F210B400F2199400B00DB431340C9
:103C280019003B681B685B035B0B05D13B681B688D
:103C38009B0E1F22134098E03B681B68012213402B
:103C480000D091E03B681B680222134000D089E055
:103C58003B681B680422134000D081E03B681B6866
:103C68000822134000D079E03B681B6810221340FB
:103C780000D071E03B681B682022134000D069E047
:103C88003B681B684022134000D061E03B681B681A
:103C98008022134000D059E03B681A6880235B00FB
:103CA800134051D13B681A6880239B00134049D1C7
:103CB8003B681A688023DB00134041D13B681A68CF
:103CC80080231B01134039D13B681A6880235B01AC
:103CD800134031D13B681A6880239B01134029D1D6
:103CE8003B681A688023DB01134021D13B681A68BE
:103CF80080231B02134019D13B681A6880235B029A
:103D0800134011D13B681A6880239B02134009D1E4
:103D18003B681A688023DB02134001D0122324E099
:103D2800002322E0112320E010231EE00F231CE0D3
:103D38000E231AE00D2318E00C2316E00B2314E0E1
:103D48000A2312E0092310E008230EE007230CE001
:103D580006230AE0052308E0042306E0032304E021
:103D6800022302E0012300E000233A6852681F2082
:103D7800024093400A001A437B681A663B685B68F6
:103D88009B085A1C7B68DB699A4208D87B681868CC
:103D98003B6859683B681B681A00FFF7AEFC7B68F4
:103DA80018683B6819683B689B681A00FFF7E8FCCD
:103DB8003B681B68002B00DBBCE0504B1800FFF78A
:103DC8005BFC03003B613B681B684D4A934222D170
:103DD8003A6980231B0413401DD13B6980221204D9
:103DE8001343464A19001000FFF732FC454B1B6885
:103DF80045491800FCF78AF903005A1C13005B00B8
:103E08009B189B00FB6002E0FB68013BFB60FB68C2
:103E1800002BF9D18EE03B681B683C4A93420ED1D7
:103E28003A6980235B04134009D13B69802252041C
:103E38001343324A19001000FFF70AFC7AE03B6886
:103E48001B68334A934200D074E03A698023DB034D
:103E5800134000D06EE03B698022D2031343274A07
:103E680019001000FFF7F4FB64E07B681A698023EF
:103E78001B069A4204D07B681B691F4A934207D1EC
:103E88007B681A683B681B6819001000FFF766FC1E
:103E98003B681B68002B4DDA184B1800FFF7ECFB4A
:103EA80003003B613B681B68154A934208D13B6994
:103EB800184A1340114A19001000FFF7C9FB39E0EE
:103EC8003B681B68114A934208D13B69124A134068
:103ED8000A4A19001000FFF7BBFB2BE03B681B6880
:103EE8000B4A934226D13B690C4A1340034A1900F6
:103EF8001000FFF7ADFB1DE004000080082701401B
:103F0800001000B078030020400D0300004000B806
:103F1800002000B4FFFF7FFFFFFFFFFEFFFFBFFF92
:103F28007B689B6D20221A437B689A651723FB18D0
:103F380001221A707B685422002199541723FB1818
:103F48001B781800BD4606B080BDC04680B582B05B
:103F580000AF0200FB1D1A70FB1D1B787F2B09D8D0
:103F6800FB1D1B781A001F231A40044B01219140A6
:103F78000A001A60C046BD4602B080BD00E100E0FC
:103F880090B583B000AF02003960FB1D1A70FB1DAD
:103F98001B787F2B28D82F4AFB1D1B785BB29B0808
:103FA800C0339B009B58FA1D1278110003220A4067
:103FB800D200FF2191400A00D2431A4011003B6809
:103FC8009B01FF221A40FB1D1B78180003230340A6
:103FD800DB009A401F48FB1D1B785BB29B080A4315
:103FE800C0339B001A5031E01B4AFB1D1B78190097
:103FF8000F230B40083B9B0806339B00D318043360
:104008001B68FA1D1278110003220A40D200FF2112
:1040180091400A00D2431A4011003B689B01FF22DD
:104028001A40FB1D1B78180003230340DB009A404D
:104038000948FB1D1B781C000F232340083B9B08E5
:104048000A4306339B00C31804331A60C046BD46B2
:1040580003B090BD00E100E000ED00E080B582B063
:1040680000AF78607B685A1E80235B049A4201D3B4
:10407800012310E00A4B7A68013A5A6001235B4237
:1040880003211800FFF77CFF054B00229A60044BC0
:1040980007221A6000231800BD4602B080BDC04642
:1040A80010E000E080B584B000AFB9607A600F21FD
:1040B8007B18021C1A70BA687B181B785BB2110057
:1040C8001800FFF75DFFC046BD4604B080BD80B54F
:1040D80082B000AF0200FB1D1A70FB1D1B785BB29B
:1040E8001800FFF733FFC046BD4602B080BD80B55B
:1040F80082B000AF78607B681800FFF7AFFF03005D
:104108001800BD4602B080BD80B582B000AF7860AF
:104118007B68002B01D1012377E07B681B683D4A4F
:104128009446634414211800FBF7F0FF03009A003B
:104138007B681A647B682522022199547B681B6876
:104148001A687B681B6834490A401A607B681B68D8
:1041580019687B689A687B68DB681A437B681B6907
:104168001A437B685B691A437B689B691A437B68BF
:10417800DB691A437B681B6A1A437B681B680A431E
:104188001A607B68180000F0C7F97B689A6880237A
:10419800DB019A4202D17B6800225A607B685A6828
:1041A8007B685B6C3F210A401A607B689B6C7A686D
:1041B800D26C5A607B685B68002B11D07B685B68A7
:1041C800042B0DD87B68180000F0D2F97B681B6DB2
:1041D80000221A607B685B6D7A68926D5A6008E00D
:1041E8007B6800221A657B6800225A657B6800227A
:1041F8009A657B680022DA637B682522012199543D
:104208007B6824220021995400231800BD4602B07F
:1042180080BDC046F8FFFDBF0F80FFFF80B582B0AC
:1042280000AF78607B68002B01D1012350E07B68E8
:1042380025229B5CDBB2022B08D07B680422DA6360
:104248007B68242200219954012341E07B681B6884
:104258001A687B681B680E218A431A607B685B6C4E
:104268001A687B685B6C1C490A401A607B681B688B
:104278001A687B681B6801218A431A60174B5968C2
:104288007B681B6C1C22134001229A40134B0A4383
:104298005A607B689B6C7A68D26C5A607B681B6D2D
:1042A800002B0CD07B681B6D1A687B681B6D0A4954
:1042B8000A401A607B685B6D7A68926D5A607B6809
:1042C8002522012199547B68242200219954002336
:1042D8001800BD4602B080BDFFFEFFFF000002408F
:1042E80080B584B000AF78600F217B1800221A7067
:1042F8007B6825229B5CDBB2022B06D07B680422FC
:10430800DA637B1801221A7049E07B681B681A6817
:104318007B681B680E218A431A607B681B681A68D1
:104328007B681B6801218A431A607B685B6C1A688A
:104338007B685B6C1D490A401A601D4B59687B6895
:104348001B6C1C22134001229A40194B0A435A60E5
:104358007B689B6C7A68D26C5A607B681B6D002BFB
:104368000CD07B681B6D1A687B681B6D0F490A406F
:104378001A607B685B6D7A68926D5A607B6825224B
:10438800012199547B682422002199547B689B6BF6
:10439800002B04D07B689B6B7A68100098470F232A
:1043A800FB181B781800BD4604B080BDFFFEFFFF58
:1043B8000000024080B584B000AF7860554B1B68A0
:1043C800FB607B681B681B68BB607B681B6C1C22DE
:1043D800134004229A401300FA68134027D0BB68A0
:1043E8000422134023D07B681B681B6820221340DB
:1043F80007D17B681B681A687B681B6804218A439D
:104408001A60444B59687B681B6C1C2213400422B9
:104418009A40404B0A435A607B681B6B002B00D1C3
:1044280073E07B681B6B7A68100098476DE07B68C7
:104438001B6C1C22134002229A401300FA68134096
:104448002ED0BB68022213402AD07B681B681B68E9
:10445800202213400BD17B681B681A687B681B6895
:104468000A218A431A607B68252201219954294B25
:1044780059687B681B6C1C22134002229A40254B0A
:104488000A435A607B682422002199547B68DB6ABE
:10449800002B3AD07B68DB6A7A681000984734E0D2
:1044A8007B681B6C1C22134008229A401300FA6890
:1044B80013402BD0BB680822134027D07B681B68A9
:1044C8001A687B681B680E218A431A60114B596869
:1044D8007B681B6C1C22134001229A400D4B0A4337
:1044E8005A607B680122DA637B682522012199548E
:1044F8007B682422002199547B685B6B002B05D0D4
:104508007B685B6B7A6810009847C046C046BD461A
:1045180004B080BD0000024080B584B000AF786070
:104528007B681B6C9B08104A944663449B001A00E6
:104538007B685A647B681B681A00FF231340083B9A
:1045480014211800FBF7E2FD0300FB607B68074AB3
:104558009A64FB681F22134001229A407B68DA6440
:10456800C046BD4604B080BD0082001080080240ED
:1045780080B584B000AF78607B685B683F221340E9
:10458800FB60FB680A4A944663449B001A007B68F8
:104598001A657B68074A5A65FB68013B032213408A
:1045A80001229A407B689A65C046BD4604B080BD2A
:1045B8003F8200104009024080B586B000AF7860A5
:1045C800396000237B6147E13B681B6801217A69F8
:1045D80091400A001340FB60FB68002B00D138E1D2
:1045E8003B685B6803221340012B05D03B685B687E
:1045F80003221340022B30D17B689B683B617B69A7
:104608005B0003229A401300DA433B6913403B6185
:104618003B68DA687B695B009A4013003A69134388
:104628003B617B683A699A607B685B683B61012201
:104638007B699A401300DA433B6913403B613B684E
:104648005B681B0901221A407B699A4013003A698A
:1046580013433B617B683A695A603B685B68032295
:104668001340032B17D07B68DB683B617B695B00D9
:1046780003229A401300DA433B6913403B613B68CD
:104688009A687B695B009A4013003A6913433B615F
:104698007B683A69DA603B685B6803221340022B47
:1046A80023D17B69DA087B6808329200D3583B61D2
:1046B8007B69072213409B000F229A401300DA43BC
:1046C8003B6913403B613B681A697B6907210B40D2
:1046D8009B009A4013003A6913433B617B69DA08EF
:1046E8007B68083292003969D1507B681B683B614E
:1046F8007B695B0003229A401300DA433B6913404D
:104708003B613B685B6803221A407B695B009A4007
:1047180013003A6913433B617B683A691A603B6846
:104728005A68C0239B02134000D192E0504A7B692B
:104738009B0818339B009B583B617B6903221340FD
:10474800DB000F229A401300DA433B6913403B61B8
:104758007A68A023DB059A4213D07B68454A9342C6
:104768000DD07B68444A934207D07B68434A934202
:1047780001D1032306E0052304E0022302E001231C
:1047880000E000237A6903210A40D20093403A6985
:1047980013433B6136497B699B0818339B003A6990
:1047A8005A50334B1B683B61FB68DA433B69134043
:1047B8003B613B685A6880235B03134003D03A6926
:1047C800FB6813433B612A4B3A691A60284B5B68C4
:1047D8003B61FB68DA433B6913403B613B685A68BD
:1047E80080239B03134003D03A69FB6813433B6162
:1047F8001F4B3A695A601E4A8423D3583B61FB68B1
:10480800DA433B6913403B613B685A6880239B024B
:10481800134003D03A69FB6813433B61144984226F
:104828003B698B50124A8023D3583B61FB68DA43BB
:104838003B6913403B613B685A6880235B02134025
:1048480003D03A69FB6813433B61094980223B69FD
:104858008B507B6901337B613B681A687B69DA405E
:10486800131E00D0B0E6C046C046BD4606B080BDA7
:10487800001802400004005000080050000C0050CE
:1048880080B584B000AF78600A00BB1C1A807B68D2
:104898001B69BA1C1288134004D00F23FB1801228D
:1048A8001A7003E00F23FB1800221A700F23FB185D
:1048B8001B781800BD4604B080BD80B582B000AF3B
:1048C800786008001100BB1C021C1A807B1C0A1CA3
:1048D8001A707B1C1B78002B04D0BB1C1A887B68C1
:1048E8009A6103E0BB1C1A887B689A62C046BD4681
:1048F80002B080BD80B584B000AF7860194B1B68EA
:10490800194A13401900174B7A680A431A607A68E3
:1049180080239B009A421FD1144B1A6813005B0036
:104928009B185B0012491800FBF7F0FB03000133EA
:10493800FB6008E0FB68002B03D0FB68013BFB60D1
:1049480001E0032309E0074B5A698023DB001A4082
:104958008023DB009A42EDD000231800BD4604B046
:1049680080BDC04600700040FFF9FFFF78030020BB
:1049780040420F0080B500AF034B9A68E023DB018B
:1049880013401800BD4680BD0010024080B588B0B5
:1049980000AF78607B68002B01D10123F3E27B68CC
:1049A8001B680122134000D17CE0C34B9B6838226E
:1049B8001340BB61C04BDB68032213407B61BB69BA
:1049C800102B02D17B69032B02D0BB69082B0BD1BA
:1049D800B94B1A6880239B02134062D07B685B68DE
:1049E800002B5ED10123CEE27B685A6880235B02EC
:1049F8009A4207D1B04B1A68AF4B802149020A434B
:104A08001A6020E07B685A68A023DB029A420ED124
:104A1800A94B1A68A84B8021C9020A431A60A64B01
:104A28001A68A54B802149020A431A600BE0A24B81
:104A38001A68A14BA1490A401A609F4B1A689E4BFD
:104A48009F490A401A607B685B68002B14D0FEF708
:104A5800F5FD03003B6108E0FEF7F0FD02003B694D
:104A6800D31A642B01D903238DE2934B1A68802350
:104A78009B021340F0D015E0FEF7E0FD03003B6118
:104A880008E0FEF7DBFD02003B69D31A642B01D96D
:104A9800032378E2884B1A6880239B021340F0D1E5
:104AA80000E0C0467B681B680222134000D199E0F1
:104AB800814B9B6838221340BB617F4BDB68032224
:104AC80013407B61BB69102B02D17B69022B02D09A
:104AD800BB69002B35D1784B1A688023DB00134063
:104AE80005D07B68DB68002B01D101234BE2724BB8
:104AF8005B68744A134019007B685B691A026E4B45
:104B08000A435A60BB69002B12D16B4B1B686E4A73
:104B1800134019007B681A69674B0A431A60664B91
:104B28001B68DB0A07221340684ADA40684B1A60A0
:104B3800684B1B681800FEF725FD031E51D00123A2
:104B480021E27B68DB68002B30D05B4B1B685E4A38
:104B5800134019007B681A69574B0A431A60564B71
:104B68001A68554B802149000A431A60FEF766FD12
:104B780003003B6108E0FEF761FD02003B69D31AC0
:104B8800022B01D90323FEE14B4B1A688023DB007B
:104B98001340F0D0484B5B684A4A134019007B68C1
:104BA8005B691A02444B0A435A601BE0424B1A687D
:104BB800414B49490A401A60FEF740FD03003B613A
:104BC80008E0FEF73BFD02003B69D31A022B01D92E
:104BD8000323D8E1384B1A688023DB001340F0D157
:104BE80000E0C0467B681B680822134047D0324B60
:104BF8009B6838221340182B0AD12F4B1B6E0222B8
:104C080013403CD07B689B69002B38D10123BAE163
:104C18007B689B69002B19D0274B1A6E264B012104
:104C28000A431A66FEF70AFD03003B6108E0FEF737
:104C380005FD02003B69D31A022B01D90323A2E127
:104C48001D4B1B6E02221340F1D018E01A4B1A6E4E
:104C5800194B01218A431A66FEF7F0FC03003B61F9
:104C680008E0FEF7EBFC02003B69D31A022B01D9DE
:104C7800032388E1104B1B6E02221340F1D17B689D
:104C88001B680422134000D1C6E01F23FB18002232
:104C98001A70094B9B6838221340202B1ED1064BF3
:104CA800DB6D0222134000D1B6E07B689B68002BC5
:104CB80000D0B1E0012366E100100240FFFFFEFFD3
:104CC800FFFFFBFFFF80FFFFFFC7FFFF0024F4008B
:104CD800780300207C030020FFFEFFFFAC4BDA6B5B
:104CE80080235B05134001D1012300E00023002B42
:104CF80011D0A74BDA6BA64B802149050A43DA632A
:104D0800A34BDA6B80235B051340FB60FB681F2312
:104D1800FB1801221A709F4B1A6880235B0013400E
:104D28001AD19C4B1A689B4B802149000A431A6090
:104D3800FEF784FC03003B6108E0FEF77FFC0200FD
:104D48003B69D31A022B01D903231CE1914B1A6842
:104D580080235B001340F0D07B689B68012B06D151
:104D68008B4BDA6D8A4B01210A43DA651CE07B68BC
:104D78009B68052B0CD1864BDA6D854B04210A43C1
:104D8800DA65834BDA6D824B01210A43DA650BE061
:104D98007F4BDA6D7E4B01218A43DA657C4BDA6DF5
:104DA8007B4B04218A43DA657B689B68002B14D00F
:104DB800FEF744FC03003B6109E0FEF73FFC0200FC
:104DC8003B69D31A744A934201D90323DBE0704B41
:104DD800DB6D02221340F0D013E0FEF72FFC030036
:104DE8003B6109E0FEF72AFC02003B69D31A6A4AD4
:104DF800934201D90323C6E0654BDB6D02221340C1
:104E0800F0D11F23FB181B78012B05D1604BDA6BFF
:104E18005F4B62490A40DA637B68DB69002B00D18B
:104E2800B0E05B4B9B6838221340102B00D178E030
:104E38007B68DB69022B53D1554B1A68544B584990
:104E48000A401A60FEF7FAFB03003B6108E0FEF730
:104E5800F5FB02003B69D31A022B01D9032392E028
:104E68004B4B1A6880239B041340F0D1484BDB68F6
:104E78004C4A134019007B681A6A7B685B6A1A43BC
:104E88007B689B6A1B021A437B68DB6A1A437B6850
:104E98001B6B1A433E4B0A43DA603D4B1A683C4B86
:104EA800802149040A431A60394BDA68384B80215B
:104EB80049050A43DA60FEF7C1FB03003B6108E0DD
:104EC800FEF7BCFB02003B69D31A022B01D903236E
:104ED80059E02F4B1A6880239B041340F0D051E00F
:104EE8002B4B1A682A4B2E490A401A60FEF7A6FB7C
:104EF80003003B6108E0FEF7A1FB02003B69D31AFF
:104F0800022B01D903233EE0214B1A6880239B041E
:104F18001340F0D11E4BDA681D4B23490A40DA6072
:104F280030E07B68DB69012B01D101232BE0184BB2
:104F3800DB687B617B6903221A407B681B6A9A42A3
:104F48001ED17B6970221A407B685B6A9A4217D12E
:104F58007A69FE23DB011A407B689B6A1B029A422E
:104F68000ED17A69F8239B031A407B68DB6A9A4260
:104F780006D17B695B0F5A077B681B6B9A4201D08D
:104F8800012300E000231800BD4608B080BDC046DC
:104F9800001002400070004088130000FFFFFFEF80
:104FA800FFFFFFFE8C80C11FFCFFFEEF80B584B0C1
:104FB80000AF786039607B68002B01D10123E9E0FC
:104FC800764B1B68072213403A689A421ED9734BE6
:104FD8001B68072293431900704B3A680A431A600A
:104FE800FEF72CFB0300FB6009E0FEF727FB02003D
:104FF800FB68D31A6A4A934201D90323CAE0674B74
:105008001B68072213403A689A42EED17B681B68F6
:105018000222134015D07B681B680422134006D077
:10502800604B9A685F4BE021C9010A439A605D4B67
:105038009B685D4A134019007B689A68594B0A437C
:105048009A607B681B680122134057D07B685B68B5
:10505800012B07D1534B1A6880239B0213402BD195
:10506800012397E07B685B68022B07D14D4B1A68D8
:1050780080239B0413401FD101238BE07B685B686E
:10508800002B07D1474B1A688023DB00134013D14C
:1050980001237FE07B685B68032B06D1414B1B6EC5
:1050A8000222134008D1012374E03E4BDB6D02223B
:1050B800134001D101236DE03A4B9B6807229343CB
:1050C80019007B685A68374B0A439A60FEF7B6FAAC
:1050D8000300FB6009E0FEF7B1FA0200FB68D31A8F
:1050E8002F4A934201D9032354E02E4B9B68382260
:1050F8001A407B685B68DB009A42ECD1274B1B683F
:10510800072213403A689A421ED2244B1B68072292
:1051180093431900214B3A680A431A60FEF78EFA46
:105128000300FB6009E0FEF789FA0200FB68D31A66
:105138001B4A934201D903232CE0184B1B68072212
:1051480013403A689A42EED17B681B6804221340E8
:1051580009D0144B9B68154A134019007B68DA681C
:10516800104B0A439A6000F029F801000D4B9B6828
:105178001B0A0F221A400E4B9200D3581F221340CD
:105188000A00DA400B4B1A600B4B1B681800FEF73D
:10519800F9F903001800BD4604B080BD00200240A4
:1051A8008813000000100240FFF0FFFFFF8FFFFF91
:1051B800A4840008780300207C03002080B586B012
:1051C80000AF3C4B9B68382213400FD1394B1B680A
:1051D800DB0A0722134001229A4013003B6039681A
:1051E8003548FAF793FF03003B615DE0314B9B685C
:1051F80038221340082B02D1304B3B6154E02D4B31
:105208009B6838221340102B38D12A4BDB680322C5
:105218001340FB60274BDB681B090722134001334F
:10522800BB60FB68032B0DD1B9682448FAF76EFF01
:10523800030019001F4BDB681B0A7F2213404B43F6
:105248007B610DE0B9681C48FAF760FF030019009C
:10525800184BDB681B0A7F2213404B437B61C04617
:10526800144BDB685B0F0722134001337B607968BE
:105278007869FAF74BFF03003B6115E00D4B9B681B
:1052880038221340202B03D180231B023B610BE003
:10529800084B9B6838221340182B03D1FA23DB01F3
:1052A8003B6101E000233B613B691800BD4606B045
:1052B80080BDC046001002400024F40000127A00AD
:1052C80080B500AF024B1B681800BD4680BDC046C4
:1052D80078030020B0B500AFFFF7F2FF0400FFF736
:1052E80049FB03001A0B054B9200D3581F221340A9
:1052F800DC4023001800BD46B0BDC046E484000869
:1053080080B582B000AF78607B68002B01D10123A3
:105318004AE07B683D229B5CDBB2002B07D17B68AF
:105328003C22002199547B681800FDF7EFFF7B6849
:105338003D22022199547B681A687B68043319005E
:10534800100000F0B3FA7B684822012199547B6869
:105358003E22012199547B683F22012199547B68A0
:105368004022012199547B684122012199547B688C
:105378004222012199547B684322012199547B6878
:105388004422012199547B684522012199547B6864
:105398004622012199547B684722012199547B6850
:1053A8003D220121995400231800BD4602B080BD5A
:1053B80080B584B000AF78607B683D229B5CDBB22F
:1053C800012B01D001233CE07B683D220221995446
:1053D8007B681B68DA687B681B6801210A43DA600E
:1053E8007B681B68194A934209D07B681B68184A76
:1053F800934204D07B681B68164A934216D17B6897
:105408001B689B68144A1340FB60FB68062B16D088
:10541800FA6880235B029A4211D07B681B681A687D
:105428007B681B6801210A431A6008E07B681B68D7
:105438001A687B681B6801210A431A6000E0C046AD
:1054480000231800BD4604B080BDC046002C0140B2
:1054580000040040004001400700010080B582B010
:1054680000AF78607B681B681B6902221340022B1F
:1054780024D17B681B68DB6802221340022B1DD1F4
:105488007B681B68032252421A617B6801221A77E3
:105498007B681B689B690322134004D07B68180053
:1054A80000F0ECF907E07B68180000F0DFF97B6892
:1054B800180000F0EBF97B6800221A777B681B68FC
:1054C8001B6904221340042B25D17B681B68DB6809
:1054D80004221340042B1ED17B681B68052252420C
:1054E8001A617B6802221A777B681B689A69C02355
:1054F8009B00134004D07B68180000F0BFF907E058
:105508007B68180000F0B2F97B68180000F0BEF95B
:105518007B6800221A777B681B681B690822134086
:10552800082B24D17B681B68DB6808221340082BF2
:105538001DD17B681B68092252421A617B680422CC
:105548001A777B681B68DB690322134004D07B68E9
:10555800180000F093F907E07B68180000F086F95E
:105568007B68180000F092F97B6800221A777B6844
:105578001B681B6910221340102B25D17B681B6800
:10558800DB6810221340102B1ED17B681B68112288
:1055980052421A617B6808221A777B681B68DA69AD
:1055A800C0239B00134004D07B68180000F066F904
:1055B80007E07B68180000F059F97B68180000F0D4
:1055C80065F97B6800221A777B681B681B690122D2
:1055D8001340012B0FD17B681B68DB680122134045
:1055E800012B08D17B681B68022252421A617B6832
:1055F8001800FCF723FB7B681B681B69802213409B
:10560800802B0FD17B681B68DB6880221340802BBE
:1056180008D17B681B68812252421A617B68180096
:1056280000F0C6FA7B681B681A6980235B001A4081
:1056380080235B009A420ED17B681B68DB6880225E
:105648001340802B07D17B681B681C4A1A617B6852
:10565800180000F0B5FA7B681B681B6940221340EC
:10566800402B0FD17B681B68DB6840221340402B1E
:1056780008D17B681B68412252421A617B68180076
:1056880000F00CF97B681B681B6920221340202B53
:105698000FD17B681B68DB6820221340202B08D1C0
:1056A8007B681B68212252421A617B68180000F04F
:1056B80077FAC046BD4602B080BDC046FFFEFFFF78
:1056C80080B584B000AF786039600F23FB180022E2
:1056D8001A707B683C229B5C012B01D10223BCE041
:1056E8007B683C22012199547B683D220221995410
:1056F8007B681B689B68BB60BB685A4A1340BB60E9
:10570800BB68594A1340BB607B681B68BA689A60DB
:105718003B681B6880229201934240D0802292010C
:10572800934200D988E080225201934200D188E058
:1057380080225201934200D97EE0702B18D000D904
:105748007AE0602B4FD000D976E0502B3BD000D9BF
:1057580072E0402B57D000D96EE0302B63D06BD865
:10576800202B60D068D8002B5DD0102B5BD063E075
:105778007B6818683B6899683B685A683B68DB68CF
:1057880000F086F97B681B689B68BB60BB68772262
:105798001343BB607B681B68BA689A6052E07B68F9
:1057A80018683B6899683B685A683B68DB6800F092
:1057B8006FF97B681B689A687B681B688021C90140
:1057C8000A439A603EE07B6818683B6859683B6802
:1057D800DB681A0000F0E0F87B681B6850211800AD
:1057E80000F03AF92EE07B6818683B6859683B6816
:1057F800DB681A0000F0FEF87B681B68602118005F
:1058080000F02AF91EE07B6818683B6859683B6815
:10581800DB681A0000F0C0F87B681B68402118009C
:1058280000F01AF90EE07B681A683B681B681900DB
:10583800100000F011F905E00F23FB1801221A707F
:1058480000E0C0467B683D22012199547B683C22D8
:10585800002199540F23FB181B781800BD4604B08B
:1058680080BDC04688FFCEFFFF00FFFF80B582B035
:1058780000AF7860C046BD4602B080BD80B582B03A
:1058880000AF7860C046BD4602B080BD80B582B02A
:1058980000AF7860C046BD4602B080BD80B582B01A
:1058A80000AF7860C046BD4602B080BD80B584B008
:1058B80000AF786039607B681B68FB607B682F4AA3
:1058C800934203D07B682E4A934208D1FB6870222A
:1058D8009343FB603B685B68FA681343FB607B6833
:1058E800264A934213D07B68254A93420FD07B689F
:1058F800244A93420BD07B68234A934207D07B68A3
:10590800224A934203D07B68214A934208D1FB681C
:10591800204A1340FB603B68DB68FA681343FB606E
:10592800FB68802293431A003B685B691343FB6062
:105938007B68FA681A603B689A687B68DA623B6839
:105948001A687B689A627B680C4A93420BD07B6822
:105958000D4A934207D07B680C4A934203D07B6878
:105968000B4A934203D13B681A697B681A637B68C8
:1059780001225A61C046BD4604B080BD002C0140DA
:105988000004004000200040004001400044014065
:1059980000480140FFFCFFFF80B586B000AFF8600B
:1059A800B9607A60FB681B6A7B61FB681B6A01222D
:1059B80093431A00FB681A62FB689B693B613B6969
:1059C800F02293433B617B681B013A6913433B61B7
:1059D8007B690A2293437B617A69BB6813437B61C5
:1059E800FB683A699A61FB687A691A62C046BD46E3
:1059F80006B080BD80B586B000AFF860B9607A6047
:105A0800FB681B6A102293431A00FB681A62FB6842
:105A18009B697B61FB681B6A3B617B690D4A13408C
:105A28007B617B681B037A6913437B613B69A02216
:105A380093433B61BB681B013A6913433B61FB68B5
:105A48007A699A61FB683A691A62C046BD4606B02F
:105A580080BDC046FF0FFFFF80B584B000AF7860FF
:105A680039607B689B68FB60FB68084A1340FB60F1
:105A78003A68FB68134307221343FB607B68FA68A4
:105A88009A60C046BD4604B080BDC0468FFFCFFFB8
:105A980080B586B000AFF860B9607A603B60FB689B
:105AA8009B687B617B69094A13407B613B681A02EA
:105AB8007B681A43BB6813437A6913437B61FB68AD
:105AC8007A699A60C046BD4606B080BDFF00FFFFF8
