:020000040800F2
:100000000090002025130008351200083B1200085C
:1000100000000000000000000000000000000000E0
:100020000000000000000000000000004112000875
:1000300000000000000000004B12000855120008EC
:100040007513000800000000751300087513000800
:100050007513000875130008751300087513000860
:1000600000000000651200087513000875130008F1
:1000700075130008751300087513000800000000D0
:100080007D12000875130008751300087513000829
:100090007513000875130008751300087513000820
:1000A0007513000875130008751300087513000810
:0800B000751300089512000809
:1000B80010B5064C2378002B07D1054B002B02D036
:1000C800044800E000BF0123237010BDA0030020F6
:1000D80000000000845F0008044B10B5002B03D01B
:1000E8000349044800E000BF10BDC04600000000FE
:1000F800A4030020845F000803B471464908400047
:100108004900095E49008E4403BC70470022430839
:100118008B4274D303098B425FD3030A8B4244D3C7
:10012800030B8B4228D3030C8B420DD3FF22090209
:1001380012BA030C8B4202D31212090265D0030BC8
:100148008B4219D300E0090AC30B8B4201D3CB03BE
:10015800C01A5241830B8B4201D38B03C01A524100
:10016800430B8B4201D34B03C01A5241030B8B4202
:1001780001D30B03C01A5241C30A8B4201D3CB02ED
:10018800C01A5241830A8B4201D38B02C01A5241D2
:10019800430A8B4201D34B02C01A5241030A8B42D5
:1001A80001D30B02C01A5241CDD2C3098B4201D3ED
:1001B800CB01C01A524183098B4201D38B01C01A6B
:1001C800524143098B4201D34B01C01A52410309E2
:1001D8008B4201D30B01C01A5241C3088B4201D391
:1001E800CB00C01A524183088B4201D38B00C01A3E
:1001F800524143088B4201D34B00C01A5241411A65
:1002080000D20146524110467047FFE701B5002071
:1002180000F006F802BDC0460029F7D076E770471F
:100228007047C04680B584B000AF0F23FB18012289
:100238001A703B0018000C231A00002105F035FA4B
:10024800284B180001F018FA031E01D000F0B2FE86
:100258003B0001221A603B0000225A603B0000224A
:100268009A603A001F4B1100180001F0ADFB031E05
:1002780001D000F09FFE3B001B4A1A603B0004229D
:100288005A603A00174B1100180001F09DFB031E3D
:1002980001D000F08FFE3B00144A1A603B00082290
:1002A8005A603A000F4B1100180001F08DFB031E35
:1002B80001D000F07FFE3B000D4A1A603B000C2283
:1002C8005A603A00074B1100180001F07DFB031E2D
:1002D80001D000F06FFE0F23FB181B781800BD46F5
:1002E80004B080BD000000200200000404000008E3
:1002F8000800000CB0B58AB000AF27257B19012291
:100308001A7010243B19180014231A00002105F054
:10031800CCF94C4B5A6B4B4B01210A435A63494B5E
:100328005B6B01221340FB60FB68464B5A6B454BE5
:1003380002210A435A63434B5B6B02221340BB60A2
:10034800BB68404B5A6B3F4B04210A435A633D4BF1
:100358005B6B042213407B607B683A4B5A6B394BCA
:1003680008210A435A63374B5B6B082213403B60F2
:100378003B6880231B0234480022190002F096F9DA
:10038800C0239900A023DB050022180002F08EF993
:100398002E4B00224021180002F088F93B19C02298
:1003A800D2011A603B1900225A603B1900229A6058
:1003B8003B19254A1900100002F014F821007B1897
:1003C800802212021A600C003B1901225A603B1964
:1003D80002229A603B190022DA603B191A4A190076
:1003E800100001F0FFFF21007B18C02292001A6064
:1003F8000C003B1901225A603B1902229A603B19F2
:100408000022DA603A19A023DB051100180001F078
:10041800E9FF21007B1840221A607B1801225A60EC
:100428007B1802229A607B180022DA607B18074A40
:100438001900100001F0D6FF7B191B781800BD4683
:100448000AB0B0BD0010024000040050000800507F
:1004580080B588B000AF1023FB18180010231A00CD
:10046800002105F022F93B1D18000C231A00002179
:1004780005F01BF9194B180002F03CFE031E01D0D1
:1004880000F098FD10217B18802252011A607A181A
:10049800124B1100180003F00DF8031E01D000F0F4
:1004A80089FD3B1D00221A603B1D00229A603A1DFF
:1004B8000A4B1100180003F005FA031E01D000F0E2
:1004C80079FD064B180002F06DFE031E01D000F006
:1004D80071FD01231800BD4608B080BD64000020EE
:1004E80080B582B000AF78603960074B7A689200B7
:1004F8003968D150054B7A6892000021D150C04626
:10050800BD4602B080BDC04618040020400400204B
:1005180080B582B000AF7860084B7A689200D358F3
:10052800002B06D0054B7A6892000021D150012398
:1005380000E000231800BD4602B080BD4004002042
:1005480080B582B000AF00237B601CE0124B7A6854
:100558009200D358002B13DD0F4B7A689200D358C2
:10056800591E0D4B7A689200D1500B4B7A68920055
:10057800D358002B04D1094B7A6892000121D1503D
:100588007B6801337B607B68092BDFDDC046C04692
:10059800BD4602B080BDC0461804002040040020BB
:1005A80080B582B000AF78607B681A68054B1B681D
:1005B8009A4203D1FFF7C4FF00F002FDC046BD46D2
:1005C80002B080BD6400002080B582B000AFFB1D82
:1005D80001221A70604B180003F0F4F9031E05D1CC
:1005E800FB1D1B78002B01D0012200E00022FB1D1F
:1005F8001A701A7801210A401A70584B180003F033
:10060800E1F9031E05D1FB1D1B78002B01D0012247
:1006180000E00022FB1D1A701A7801210A401A70A6
:100628004F4B180003F0CEF9031E05D1FB1D1B78B4
:10063800002B01D0012200E00022FB1D1A701A785D
:1006480001210A401A70474B180003F0BBF9031E3A
:1006580005D1FB1D1B78002B01D0012200E00022F0
:10066800FB1D1A701A7801210A401A703E4B5B680C
:100678000121180000F040F9031E05D0FB1D1B786E
:10068800002B01D0012200E00022FB1D1A701A780D
:1006980001210A401A70344B1B690221180000F02E
:1006A8002BF9031E05D0FB1D1B78002B01D001225E
:1006B80000E00022FB1D1A701A7801210A401A7006
:1006C800294BDB690121180000F016F9031E05D03B
:1006D800FB1D1B78002B01D0012200E00022FB1D2E
:1006E8001A701A7801210A401A701F4B9B6A01215F
:1006F800180000F001F9031E05D0FB1D1B78002B24
:1007080001D0012200E00022FB1D1A701A78012195
:100718000A401A70144B1B6814490122180003F090
:1007280043FA114BDB6812490122180003F03CFA26
:100738000D4B9B690F490122180003F035FA0A4B4B
:100748005B6A0D490122180003F02EFAFB1D1B7885
:100758001800BD4602B080BDB00000204401002052
:10076800D80100206C0200200003002008030020AC
:1007780014030020200300202C03002080B584B03F
:1007880000AFB9607A600F217B18021C1A707B18C1
:100798001A78084913005B009B189B0058587B681F
:1007A8009AB2054BB96803F063F9C0461800BD4614
:1007B80004B080BD00030020FFFF000090B585B0A5
:1007C80000AF0200FB1D1A70FB1D1A7809491300BF
:1007D8005B009B189B00CB1804331B680F243A1945
:1007E8001100180000F0ECF83B191B781800BD4602
:1007F80005B090BD0003002080B582B000AF7860DE
:100808007B681A68364B1B681B689A4213D1344BB5
:100818005B68344A1100180000F09AF8304B1B68E6
:1008280030490122180003F0BFF92F4B1B685A1CEE
:100838002D4B1A604FE07B681A68294BDB681B68F0
:100848009A4213D1264B1B69284A1100180000F060
:100858007FF8234BDB6825490122180003F0A4F92F
:10086800214B5B685A1C204B5A6034E07B681A683D
:100878001B4B9B691B689A4213D1194BDB691C4AB5
:100888001100180000F064F8154B9B691849012203
:10089800180003F089F9144B9B685A1C124B9A6094
:1008A80019E07B681A680E4B5B6A1B689A4212D182
:1008B8000B4B9B6A0F4A1100180000F049F8084BCF
:1008C8005B6A0C490122180003F06EF9064BDB68DD
:1008D8005A1C054BDA60C046BD4602B080BDC04612
:1008E80000030020080300206804002014030020EF
:1008F800200300202C03002080B582B000AF786070
:100908000A00BB1C1A807A6880231B010021D15081
:100918007B680C4A002199507B680B4A002199504A
:100928007B68BA1C094912885A527B6880221201D6
:100938000021180004F0B9FE01231800BD4602B0DA
:1009480080BDC04604080000080800000C0800002C
:1009580080B584B000AF786039603B68BB607B6865
:10096800180000F0A3F8031E01D0002322E00023A2
:10097800FB6017E0BA68FB68D218796880231B010E
:10098800CB5811787A68D1547A6880231B01D358E0
:1009980001335B05590D7A6880231B01D150FB6830
:1009A8000133FB607B68054A9B5A1A00FB68934237
:1009B800E0D301231800BD4604B080BD0C08000038
:1009C80080B584B000AF786039603B68BB607B68F5
:1009D800180000F031F803001A0001235340DBB27D
:1009E800002B01D000231FE00023FB6014E07B688C
:1009F8000F4A9A58B968FB68CB1879688A5C1A70EC
:100A08007B680B4A9B5801335B055A0D7B68084984
:100A18005A50FB680133FB607B68064A9B5A1A00F0
:100A2800FB689342E3D301231800BD4604B080BDA0
:100A3800040800000C08000080B582B000AF7860A0
:100A48007A6880231B01D2587B6816495B589A4202
:100A580010D37A6880231B01D2587B6811495B58F0
:100A6800D21A7B6810495B5A190000238A425B41FD
:100A7800DBB212E07A6880231B01D2587B680949EF
:100A88005B58D31A802212019A187B6806495B5A70
:100A9800190000238A425B41DBB21800BD4602B050
:100AA80080BDC046040800000C08000080B582B074
:100AB80000AF78607A6880231B01D2587B6816499A
:100AC8005B589A4213D37B68134A9A5879688023F3
:100AD8001B01CB58D31A802212019A187B680F4940
:100AE8005B5A1900002391425B41DBB20FE07B683F
:100AF800094A9A58796880231B01CB58D21A7B6817
:100B080006495B5A1900002391425B41DBB2180089
:100B1800BD4602B080BDC046040800000C080000B5
:100B2800B0B500AFA24B9B68002B00DC3AE1A04BAC
:100B38009B685A1E9E4B9A609E4B1B68002B02D0E6
:100B4800012B11D027E10220FFF738FE0300212BEB
:100B580000D029E1984B21221A70984B01221A6083
:100B6800944B01221A601FE1944B1B680B2B05DD87
:100B7800924B00221A608F4B00221A608F4B1C6820
:100B88000220FFF71BFE03001A008B4B1A558B4BF4
:100B98001B68894AD35C232B00D0EAE0864B5B783C
:100BA800452B03D1864B00221A60DCE0824B5B7830
:100BB800532B4ED1804B9B78302B0CD1814B01228B
:100BC8004021180001F072FD7F4A8049804B1800CF
:100BD80004F074FD35E0784B9B78312B0ED18023DF
:100BE8009900A023DB050122180001F05FFD794A76
:100BF8007649774B180004F061FD22E06E4B9B7834
:100C0800322B0CD16F4B00224021180001F04EFD11
:100C1800714A6E496E4B180004F050FD11E0664BA6
:100C28009B78332B0DD180239900A023DB0500226C
:100C3800180001F03BFD694A6449654B180004F04F
:100C48003DFD5F4B01221A6064210020FFF748FC3C
:100C580089E0594B5B78522B50D1574B9B78302BFE
:100C68000ED180235900A023DB050122180001F0D2
:100C78001DFD5B4A55495B4B180004F01FFD35E02C
:100C88004D4B9B78312B0DD180231B0256480122F6
:100C9800190001F00BFD554A4C49524B180004F05D
:100CA8000DFD23E0444B9B78322B0ED18023590055
:100CB800A023DB050022180001F0F8FC4C4A434948
:100CC800484B180004F0FAFC10E03B4B9B78332BA0
:100CD8000CD180231B0244480022190001F0E6FCD5
:100CE800444A3A493F4B180004F0E8FC344B0222CE
:100CF8001A6064210020FFF7F3FB34E02E4B5B7889
:100D0800462B0DD12C4B9B78302B01D02A4B9B784E
:100D18002B4B03221A6064210020FFF7E1FB22E03D
:100D2800254B5B78572B0DD1234B9B78302B01D06B
:100D3800214B9B78224B04221A6064210020FFF784
:100D4800CFFB10E01C4B5B78542B0CD11A4B9B78D3
:100D5800302B01D0184B9B78194B05221A6064215F
:100D68000020FFF7BDFB154B00221A60114B002233
:100D78001A60124B1B68104AD35C212B05D10E4B0D
:100D880021221A700D4B01221A600C4B1B685A1C49
:100D98000A4B1A6009E0184B092219000220FFF7D4
:100DA800EDFC02E0C04600E0C046C046BD46B0BD0E
:100DB80068040020B8240020C4240020C024002097
:100DC800BC240020000800509C5F0008B05F0008A9
:100DD800D0240020B45F0008C85F0008DC5F00086A
:100DE800F05F00080425002000040050006000089F
:100DF80010600008206000083060000880B500AF6F
:100E0800344B1B68052B54D89A00334BD3181B68F6
:100E18009F460020FFF77CFB031E4ED02F4B32224B
:100E280019000220FFF7AAFC64210020FFF758FBF5
:100E380043E00020FFF76CFB031E40D0284B322212
:100E480019000220FFF79AFC64210020FFF748FBF5
:100E580035E00020FFF75CFB031E32D0214B322225
:100E680019000220FFF78AFC64210020FFF738FBF5
:100E780027E00020FFF74CFB031E24D01A4B322238
:100E880019000220FFF77AFC64210020FFF728FBF5
:100E980019E00020FFF73CFB031E16D0134B32224B
:100EA80019000220FFF76AFC64210020FFF718FBF5
:100EB8000BE0C0460AE0C04608E0C04606E0C0466F
:100EC80004E0C04602E0C04600E0C046C046BD4659
:100ED80080BDC046BC2400203C600008D02400200F
:100EE80004250020382500206C250020A02500209E
:100EF80080B500AFFFF714FEFFF780FFC046BD4680
:100F080080BD80B500AF00F033FAFFF75DFBFFF757
:100F18009FFAFFF787F9FFF7EDF900F003F8FFF7FD
:100F2800E7FFFCE790B593B000AF14243B19180015
:100F380034231A00002104F0B8FB3B1D18001023CD
:100F48001A00002104F0B1FB80239B00180001F077
:100F5800CBFB3B1902221A603B1980225200DA604F
:100F68003B1900221A613B1940225A613B190022A1
:100F7800DA613B19180001F003FC031E01D000F0F0
:100F880019F83B1D07221A603B1D00225A603B1DC1
:100F980000229A603B1D0022DA603B1D00211800E8
:100FA80001F0FEFE031E01D000F004F8C046BD4665
:100FB80013B090BD80B500AF72B6C046FEE7000022
:100FC80080B500AF0F4B1B685A1C0E4B1A600E4BB6
:100FD8001B68002B13D00C4B1B7B002B0FD10A4B2B
:100FE8005B68002B04D0084B5B685A1E064B5A609E
:100FF800054B5B68002B02D1034B01221A73C046D4
:10100800BD4680BDF4280020D425002080B582B0DC
:1010180000AF0F4B1A6C0E4B01210A431A640C4B9C
:101028001B6C012213407B607B68094BDA6B084B11
:10103800802149050A43DA63054BDA6B80235B0597
:1010480013403B603B68C046BD4602B080BDC04609
:101058000010024090B58BB000AF786014243B19A3
:10106800180014231A00002104F01FFB7B681B687A
:101078002D4A934254D12D4B1A6C2C4B8021490395
:101088000A431A64294B1A6C80235B0313403B61A3
:101098003B69264B5A6B254B01210A435A63234B64
:1010A8005B6B01221340FB60FB683B190F221A603F
:1010B8003B1903225A603B1900229A603A19A0236F
:1010C800DB051100180001F08DF9194B194A1A6057
:1010D800174B05225A60164B00229A60144B0022C7
:1010E800DA60134B80221A61114B802252005A6138
:1010F8000F4B8022D2009A610D4B0022DA610C4B13
:1011080000221A620A4B180000F014FF031E01D0D7
:10111800FFF750FF7B68064A1A65054B7A689A62A2
:10112800C046BD460BB090BD0024014000100240EF
:10113800BC0300200800024080B584B000AF78608E
:101148007B681B680D4A934213D10D4BDA6B0C4B2D
:1011580002210A43DA630A4BDB6B02221340FB606D
:10116800FB6800220021102000F0B2FE102000F0E1
:10117800C4FEC046BD4604B080BDC0460004004061
:101188000010024090B58BB000AF786014243B1972
:10119800180014231A00002104F087FA7B681B68E2
:1011A8001F4A934238D11F4BDA6B1E4B8021C9026C
:1011B8000A43DA631B4BDA6B8023DB0213403B6183
:1011C8003B69184B5A6B174B08210A435A63154B56
:1011D8005B6B08221340FB60FB683B19C02292003E
:1011E8001A6021007B1802225A607B1800229A603C
:1011F8007B180022DA607B1800221A617B180A4AE1
:101208001900100001F0EEF8002200211D2000F066
:101218005FFE1D2000F071FEC046BD460BB090BDBC
:101228000048004000100240000C005080B500AF9C
:10123800FEE780B500AFFEE780B500AFC046BD460B
:1012480080BD80B500AFC046BD4680BD80B500AF4B
:1012580000F0F8F8C046BD4680BD000080B500AF7C
:10126800034B180000F0BCFFC046BD4680BDC04619
:10127800BC03002080B500AF034B180001F0E8FF65
:10128800C046BD4680BDC0466400002080B500AFA2
:10129800034B180002F0E0FCC046BD4680BDC046C6
:1012A800D801002080B586B000AF7860144A154B8D
:1012B800D31A7B617B693B61134B1B68002B02D1FE
:1012C800114B124A1A60104B1A687B68D3183A6996
:1012D8009A4207D204F0B6F903000C221A600123DF
:1012E8005B4209E0084B1B68FB60074B1A687B6888
:1012F800D218054B1A60FB681800BD4606B080BDC1
:101308000090002000040000F82800201029002088
:1013180080B500AFC046BD4680BD00000D4885467B
:10132800FFF7F6FF0C480D490D4A002302E0D45898
:10133800C4500433C4188C42F9D30A4A0A4C002317
:1013480001E013600432A242FBD304F081F9FFF7F5
:10135800D8FDFEE70090002000000020A003002038
:1013680008610008A003002010290020FEE7000003
:1013780080B582B000AFFB1D00221A700B4B1A68B3
:101388000A4B802149000A431A60032000F010F834
:10139800031E03D0FB1D01221A7001E0FFF736FE81
:1013A800FB1D1B781800BD4602B080BD002002401E
:1013B80090B585B000AF78600F23FB1800221A7033
:1013C8001D4B1B78002B2BD01C4B1C681A4B1B7811
:1013D8001900FA239800FEF799FE0300190020006F
:1013E800FEF794FE0300180000F097FD031E12D1CB
:1013F8007B68032B0AD8796801235B420022180016
:1014080000F066FD0E4B7A681A600DE00F23FB189A
:1014180001221A7008E00F23FB1801221A7003E05A
:101428000F23FB1801221A700F23FB181B781800D2
:10143800BD4605B090BDC0463803002030030020EB
:101448003403002080B500AF054B1B781A00054B0C
:101458001B68D218034B1A60C046BD4680BDC04603
:1014680038030020FC28002080B500AF024B1B6821
:101478001800BD4680BDC046FC28002080B582B05B
:1014880000AF786039607B681B68054A1A403B6882
:101498001A437B681A60C046BD4602B080BDC0468C
:1014A800FFFF3FFE80B582B000AF78607B681A68A6
:1014B800E0235B0413401800BD4602B080BD80B530
:1014C80084B000AFF860B9607A60FB685B69BA689D
:1014D80004210A40072191400A00D2431A40BB6800
:1014E80004210B40796899400B001A43FB685A6144
:1014F800C046BD4604B080BD80B582B000AF7860FC
:1015080039607B685B693A6804210A400721914089
:101518000A001A403B6804210B40DA401300180007
:10152800BD4602B080BD80B584B000AFF860B96038
:101538007A60FB689B6ABA681F210A400F219140B4
:101548000A00D2431A407B689B0E0F211940BB68E2
:101558001F20034099400B001A43FB689A62C0465B
:10156800BD4604B080BD80B582B000AF78603960F8
:101578007B689A6A3B685B035B0B1A437B689A62D9
:10158800C046BD4602B080BD80B582B000AF78606D
:1015980039607B689B6A3A685203520BD2431A40FF
:1015A8007B689A62C046BD4602B080BD80B584B0F3
:1015B80000AFF860B9607A60FB685B69BA681202CC
:1015C800D2431A40BB681B0279680B4004490B40A0
:1015D8001A43FB685A61C046BD4604B080BDC04688
:1015E80000FFFF0780B582B000AF78607B689B681A
:1015F800054A1340802252051A437B689A60C04608
:10160800BD4602B080BDC046E8FFFF6F80B582B01E
:1016180000AF78607B689A6880235B051A40802356
:101628005B059A4201D1012300E000231800BD4662
:1016380002B080BD80B582B000AF78607B689B68DF
:1016480001221340012B01D1012300E000231800DF
:10165800BD4602B080BD80B582B000AF78607B68BF
:101668009B6804221340042B01D1012300E00023CE
:101678001800BD4602B080BD80B588B000AF786064
:101688001F23FB1800221A700023BB6100237B6113
:101698000023FB607B68002B01D101237FE17B687D
:1016A8009B6D002B0AD17B681800FFF7D3FC7B6881
:1016B8000022DA657B685422002199547B681B68F4
:1016C8001800FFF7A3FF031E15D17B681B681800DD
:1016D800FFF788FFB44B1B68B4491800FEF716FDE6
:1016E800030001335B00FB6002E0FB68013BFB6029
:1016F800FB68002BF9D17B681B681800FFF786FF91
:10170800031E0FD17B689B6D10221A437B689A6574
:101718007B68DB6D01221A437B68DA651F23FB189F
:1017280001221A707B681B681800FFF794FF0300FA
:101738003B617B689B6D1022134000D022E13B691E
:10174800002B00D01EE17B689B6D994A1340022252
:101758001A437B689A657B681B681800FFF76AFF65
:10176800031E00D0ADE07B689A687B681B7E9B03F4
:101778001A437B685B7EDB031A437B689B7E5B03B3
:101788001A437B681B6B002B02D080235B0100E0AF
:1017980000231A437B68DB681A437B681B69002BAC
:1017A80004DA7B681B695B005B0801E080239B030C
:1017B8001A437B682C215B5C5B001343BA691343B3
:1017C800BB617B6820229B5C012B15D17B689B7ECB
:1017D800002B05D1BB69802252021343BB610BE089
:1017E8007B689B6D20221A437B689A657B68DB6D5A
:1017F80001221A437B68DA657B685B6A002B0AD092
:101808007B685A6AE0235B001A407B689B6A134333
:10181800BA691343BB617B681B68DB68654A134080
:1018280019007B681B68BA690A43DA607B685B68E1
:101838009B0F9A077B68DB6C13437A6913437B61C0
:101848007B683C229B5C012B11D17B685B689B0FFA
:101858009A077B681B6C1A437B685B6C1A437B682E
:101868009B6C1A437B691343012213437B617B689A
:101878001B681B69504A134019007B681B687A690A
:101888000A431A617B685A68C0231B069A4218D01B
:101898007B685A688023DB059A4212D07B685A68B5
:1018A80080231B069A420CD0444B1B68444A1340C1
:1018B80019007B685A68F0239B031A403F4B0A4380
:1018C8001A607B6818687B685B6B1A000021FFF759
:1018D800F6FD7B6818687B689B6B3A491A00FFF72E
:1018E800EEFD7B681B69002B09D17B681B689A6A2F
:1018F8007B681B68102149420A439A6218E07B689A
:101908001A6980239B039A4212D17B681B689B6AE1
:101918007B68DB69013B9B001C221340102252426A
:101928009A4011007B681A6E7B681B680A439A62AA
:101938007B681B6800211800FFF7DEFD02007B684A
:101948005B6B9A420BD17B680022DA657B689B6DE2
:101958000322934301221A437B689A651CE07B6843
:101968009B6D1222934310221A437B689A657B6809
:10197800DB6D01221A437B68DA651F23FB180122FD
:101988001A7009E07B689B6D10221A437B689A6580
:101998001F23FB1801221A701F23FB181B7818003D
:1019A800BD4608B080BDC04630030020400D03008E
:1019B800FDFEFFFF0102FEFF02FCFF1F082701409A
:1019C800FFFFC3FF04FFFF0780B586B000AF786054
:1019D80039601723FB1800221A700023FB607B680C
:1019E80054229B5C012B01D10223C0E17B68542265
:1019F800012199547B681B681800FFF72CFE031E11
:101A080000D0A3E13B685B68022B00D143E17B680F
:101A18001A6980231B069A4204D07B681B69C14A55
:101A2800934208D17B681A683B681B68190010004C
:101A3800FFF799FDC9E07B681A6E3B685B681F2158
:101A48000B400F2199400B00DB43134019003B6802
:101A58001B685B035B0B05D13B681B689B0E1F2251
:101A6800134098E03B681B680122134000D091E0C6
:101A78003B681B680222134000D089E03B681B6862
:101A88000422134000D081E03B681B680822134001
:101A980000D079E03B681B681022134000D071E049
:101AA8003B681B682022134000D069E03B681B6834
:101AB8004022134000D061E03B681B68802213403D
:101AC80000D059E03B681A6880235B00134051D16D
:101AD8003B681A6880239B00134049D13B681A6809
:101AE8008023DB00134041D13B681A6880231B0127
:101AF800134039D13B681A6880235B01134031D108
:101B08003B681A6880239B01134029D13B681A68F7
:101B18008023DB01134021D13B681A6880231B0214
:101B2800134019D13B681A6880235B02134011D116
:101B38003B681A6880239B02134009D13B681A68E6
:101B48008023DB02134001D0122324E0002322E08B
:101B5800112320E010231EE00F231CE00E231AE0BF
:101B68000D2318E00C2316E00B2314E00A2312E0DF
:101B7800092310E008230EE007230CE006230AE0FF
:101B8800052308E0042306E0032304E0022302E01F
:101B9800012300E000233A6852681F200240934066
:101BA8000A001A437B681A663B685B689B085A1CE4
:101BB8007B68DB699A4208D87B6818683B68596873
:101BC8003B681B681A00FFF7AEFC7B6818683B6827
:101BD80019683B689B681A00FFF7E8FC3B681B68BC
:101BE800002B00DBBCE0504B1800FFF75BFC030048
:101BF8003B613B681B684D4A934222D13A69802376
:101C08001B0413401DD13B69802212041343464A2A
:101C180019001000FFF732FC454B1B6845491800B6
:101C2800FEF774FA03005A1C13005B009B189B0014
:101C3800FB6002E0FB68013BFB60FB68002BF9D10D
:101C48008EE03B681B683C4A93420ED13A69802378
:101C58005B04134009D13B69802252041343324A82
:101C680019001000FFF70AFC7AE03B681B68334A4A
:101C7800934200D074E03A698023DB03134000D01C
:101C88006EE03B698022D2031343274A19001000F3
:101C9800FFF7F4FB64E07B681A6980231B069A420D
:101CA80004D07B681B691F4A934207D17B681A6876
:101CB8003B681B6819001000FFF766FC3B681B684F
:101CC800002B4DDA184B1800FFF7ECFB03003B61C3
:101CD8003B681B68154A934208D13B69184A134070
:101CE800114A19001000FFF7C9FB39E03B681B686F
:101CF800114A934208D13B69124A13400A4A190013
:101D08001000FFF7BBFB2BE03B681B680B4A9342B4
:101D180026D13B690C4A1340034A19001000FFF70B
:101D2800ADFB1DE00400008008270140001000B052
:101D380030030020400D0300004000B8002000B42C
:101D4800FFFF7FFFFFFFFFFEFFFFBFFF7B689B6D6D
:101D580020221A437B689A651723FB1801221A7000
:101D68007B685422002199541723FB181B7818000C
:101D7800BD4606B080BDC04680B582B000AF020047
:101D8800FB1D1A70FB1D1B787F2B09D8FB1D1B78C8
:101D98001A001F231A40044B012191400A001A60BF
:101DA800C046BD4602B080BD00E100E090B583B0FA
:101DB80000AF02003960FB1D1A70FB1D1B787F2BDA
:101DC80028D82F4AFB1D1B785BB29B08C0339B00A9
:101DD8009B58FA1D1278110003220A40D200FF21F5
:101DE80091400A00D2431A4011003B689B01FF2230
:101DF8001A40FB1D1B78180003230340DB009A40A0
:101E08001F48FB1D1B785BB29B080A43C0339B002D
:101E18001A5031E01B4AFB1D1B7819000F230B4099
:101E2800083B9B0806339B00D31804331B68FA1D34
:101E38001278110003220A40D200FF2191400A00C3
:101E4800D2431A4011003B689B01FF221A40FB1D38
:101E58001B78180003230340DB009A400948FB1D48
:101E68001B781C000F232340083B9B080A430633BA
:101E78009B00C31804331A60C046BD4603B090BD2A
:101E880000E100E000ED00E080B582B000AF7860CE
:101E98007B685A1E80235B049A4201D3012310E019
:101EA8000A4B7A68013A5A6001235B420321180001
:101EB800FFF77CFF054B00229A60044B07221A604B
:101EC80000231800BD4602B080BDC04610E000E007
:101ED80080B584B000AFB9607A600F217B18021C0E
:101EE8001A70BA687B181B785BB211001800FFF7EC
:101EF8005DFFC046BD4604B080BD80B582B000AF6E
:101F08000200FB1D1A70FB1D1B785BB21800FFF75F
:101F180033FFC046BD4602B080BD80B582B000AF79
:101F280078607B681800FFF7AFFF03001800BD4614
:101F380002B080BD80B582B000AF78607B68002BAE
:101F480001D1012377E07B681B683D4A94466344CE
:101F580014211800FEF7DAF803009A007B681A6467
:101F68007B682522022199547B681B681A687B6864
:101F78001B6834490A401A607B681B6819687B68CB
:101F88009A687B68DB681A437B681B691A437B681D
:101F98005B691A437B689B691A437B68DB691A4350
:101FA8007B681B6A1A437B681B680A431A607B6854
:101FB800180000F0C7F97B689A688023DB019A4211
:101FC80002D17B6800225A607B685A687B685B6C28
:101FD8003F210A401A607B689B6C7A68D26C5A6011
:101FE8007B685B68002B11D07B685B68042B0DD87D
:101FF8007B68180000F0D2F97B681B6D00221A601C
:102008007B685B6D7A68926D5A6008E07B68002295
:102018001A657B6800225A657B6800229A657B688E
:102028000022DA637B682522012199547B682422E7
:102038000021995400231800BD4602B080BDC04657
:10204800F8FFFDBF0F80FFFF80B582B000AF78605A
:102058007B68002B01D1012350E07B6825229B5C23
:10206800DBB2022B08D07B680422DA637B68242267
:1020780000219954012341E07B681B681A687B683A
:102088001B680E218A431A607B685B6C1A687B6840
:102098005B6C1C490A401A607B681B681A687B687D
:1020A8001B6801218A431A60174B59687B681B6CAF
:1020B8001C22134001229A40134B0A435A607B6842
:1020C8009B6C7A68D26C5A607B681B6D002B0CD0B5
:1020D8007B681B6D1A687B681B6D0A490A401A6089
:1020E8007B685B6D7A68926D5A607B682522012156
:1020F80099547B6824220021995400231800BD4676
:1021080002B080BDFFFEFFFF0000024080B584B032
:1021180000AF78600F217B1800221A707B68252297
:102128009B5CDBB2022B06D07B680422DA637B1847
:1021380001221A7049E07B681B681A687B681B6873
:102148000E218A431A607B681B681A687B681B68C3
:1021580001218A431A607B685B6C1A687B685B6C38
:102168001D490A401A601D4B59687B681B6C1C226C
:10217800134001229A40194B0A435A607B689B6CB2
:102188007A68D26C5A607B681B6D002B0CD07B6818
:102198001B6D1A687B681B6D0F490A401A607B68C3
:1021A8005B6D7A68926D5A607B682522012199548B
:1021B8007B682422002199547B689B6B002B04D0F8
:1021C8007B689B6B7A68100098470F23FB181B7875
:1021D8001800BD4604B080BDFFFEFFFF00000240AE
:1021E80080B584B000AF7860554B1B68FB607B6896
:1021F8001B681B68BB607B681B6C1C221340042295
:102208009A401300FA68134027D0BB680422134091
:1022180023D07B681B681B682022134007D17B688A
:102228001B681A687B681B6804218A431A60444B40
:1022380059687B681B6C1C22134004229A40404B4F
:102248000A435A607B681B6B002B00D173E07B68E4
:102258001B6B7A68100098476DE07B681B6C1C222A
:10226800134002229A401300FA6813402ED0BB682C
:10227800022213402AD07B681B681B682022134067
:102288000BD17B681B681A687B681B680A218A4324
:102298001A607B68252201219954294B59687B686B
:1022A8001B6C1C22134002229A40254B0A435A6099
:1022B8007B682422002199547B68DB6A002B3AD082
:1022C8007B68DB6A7A681000984734E07B681B6C8F
:1022D8001C22134008229A401300FA6813402BD09E
:1022E800BB680822134027D07B681B681A687B6884
:1022F8001B680E218A431A60114B59687B681B6C56
:102308001C22134001229A400D4B0A435A607B68F5
:102318000122DA637B682522012199547B682422F3
:10232800002199547B685B6B002B05D07B685B6B45
:102338007A6810009847C046C046BD4604B080BDC4
:102348000000024080B584B000AF78607B681B6CE9
:102358009B08104A944663449B001A007B685A64A1
:102368007B681B681A00FF231340083B14211800E0
:10237800FDF7CCFE0300FB607B68074A9A64FB68A4
:102388001F22134001229A407B68DA64C046BD468A
:1023980004B080BD008200108008024080B584B07F
:1023A80000AF78607B685B683F221340FB60FB6886
:1023B8000A4A944663449B001A007B681A657B6846
:1023C800074A5A65FB68013B0322134001229A40E1
:1023D8007B689A65C046BD4604B080BD3F82001048
:1023E8004009024080B586B000AF786039600023AC
:1023F8007B6147E13B681B6801217A6991400A00CB
:102408001340FB60FB68002B00D138E13B685B6838
:1024180003221340012B05D03B685B68032213405D
:10242800022B30D17B689B683B617B695B00032290
:102438009A401300DA433B6913403B613B68DA6812
:102448007B695B009A4013003A6913433B617B68E0
:102458003A699A607B685B683B6101227B699A40B4
:102468001300DA433B6913403B613B685B681B0917
:1024780001221A407B699A4013003A6913433B6171
:102488007B683A695A603B685B6803221340032BF8
:1024980017D07B68DB683B617B695B0003229A404D
:1024A8001300DA433B6913403B613B689A687B69D8
:1024B8005B009A4013003A6913433B617B683A69B1
:1024C800DA603B685B6803221340022B23D17B69E7
:1024D800DA087B6808329200D3583B617B6907228F
:1024E80013409B000F229A401300DA433B691340C4
:1024F8003B613B681A697B6907210B409B009A4046
:1025080013003A6913433B617B69DA087B68083238
:1025180092003969D1507B681B683B617B695B001D
:1025280003229A401300DA433B6913403B613B683E
:102538005B6803221A407B695B009A4013003A6982
:1025480013433B617B683A691A603B685A68C02349
:102558009B02134000D192E0504A7B699B081833D4
:102568009B009B583B617B6903221340DB000F22D1
:102578009A401300DA433B6913403B617A68A02311
:10258800DB059A4213D07B68454A93420DD07B689D
:10259800444A934207D07B68434A934201D10323BC
:1025A80006E0052304E0022302E0012300E0002303
:1025B8007A6903210A40D20093403A6913433B6188
:1025C80036497B699B0818339B003A695A50334B4C
:1025D8001B683B61FB68DA433B6913403B613B681E
:1025E8005A6880235B03134003D03A69FB6813439E
:1025F8003B612A4B3A691A60284B5B683B61FB6870
:10260800DA433B6913403B613B685A6880239B036C
:10261800134003D03A69FB6813433B611F4B3A6987
:102628005A601E4A8423D3583B61FB68DA433B69EE
:1026380013403B613B685A6880239B02134003D0D8
:102648003A69FB6813433B61144984223B698B5008
:10265800124A8023D3583B61FB68DA433B69134035
:102668003B613B685A6880235B02134003D03A6998
:10267800FB6813433B61094980223B698B507B69A6
:1026880001337B613B681A687B69DA40131E00D00E
:10269800B0E6C046C046BD4606B080BD0018024040
:1026A8000004005000080050000C005080B582B0B3
:1026B80000AF786008001100BB1C021C1A807B1C4C
:1026C8000A1C1A707B1C1B78002B04D0BB1C1A88B0
:1026D8007B689A6103E0BB1C1A887B689A62C046D3
:1026E800BD4602B080BD000080B584B000AF786000
:1026F800194B1B68194A13401900174B7A680A438B
:102708001A607A6880239B009A421FD1144B1A687A
:1027180013005B009B185B0012491800FDF7F6FCDC
:1027280003000133FB6008E0FB68002B03D0FB6863
:10273800013BFB6001E0032309E0074B5A69802352
:10274800DB001A408023DB009A42EDD000231800FA
:10275800BD4604B080BDC04600700040FFF9FFFFD1
:102768003003002040420F0080B500AF034B9A6849
:10277800E023DB0113401800BD4680BD0010024075
:1027880080B588B000AF78607B68002B01D1012349
:10279800F3E27B681B680122134000D17CE0C34B45
:1027A8009B6838221340BB61C04BDB68032213408F
:1027B8007B61BB69102B02D17B69032B02D0BB69FB
:1027C800082B0BD1B94B1A6880239B02134062D0A7
:1027D8007B685B68002B5ED10123CEE27B685A6878
:1027E80080235B029A4207D1B04B1A68AF4B802115
:1027F80049020A431A6020E07B685A68A023DB027A
:102808009A420ED1A94B1A68A84B8021C9020A43E3
:102818001A60A64B1A68A54B802149020A431A6020
:102828000BE0A24B1A68A14BA1490A401A609F4BC2
:102838001A689E4B9F490A401A607B685B68002BA8
:1028480014D0FEF711FE03003B6108E0FEF70CFE12
:1028580002003B69D31A642B01D903238DE2934B01
:102868001A6880239B021340F0D015E0FEF7FCFDA8
:1028780003003B6108E0FEF7F7FD02003B69D31A4D
:10288800642B01D9032378E2884B1A6880239B02C2
:102898001340F0D100E0C0467B681B680222134059
:1028A80000D199E0814B9B6838221340BB617F4B74
:1028B800DB68032213407B61BB69102B02D17B6963
:1028C800022B02D0BB69002B35D1784B1A688023C4
:1028D800DB00134005D07B68DB68002B01D10123A6
:1028E8004BE2724B5B68744A134019007B685B6962
:1028F8001A026E4B0A435A60BB69002B12D16B4B0C
:102908001B686E4A134019007B681A69674B0A43B3
:102918001A60664B1B68DB0A07221340684ADA40D4
:10292800684B1A60684B1B681800FEF741FD031ED0
:1029380051D0012321E27B68DB68002B30D05B4B50
:102948001B685E4A134019007B681A69574B0A4393
:102958001A60564B1A68554B802149000A431A6081
:10296800FEF782FD03003B6108E0FEF77DFD0200F3
:102978003B69D31A022B01D90323FEE14B4B1A689A
:102988008023DB001340F0D0484B5B684A4A134071
:1029980019007B685B691A02444B0A435A601BE0C2
:1029A800424B1A68414B49490A401A60FEF75CFDE0
:1029B80003003B6108E0FEF757FD02003B69D31AAC
:1029C800022B01D90323D8E1384B1A688023DB0096
:1029D8001340F0D100E0C0467B681B680822134012
:1029E80047D0324B9B6838221340182B0AD12F4B03
:1029F8001B6E022213403CD07B689B69002B38D1A8
:102A08000123BAE17B689B69002B19D0274B1A6E0A
:102A1800264B01210A431A66FEF726FD03003B6197
:102A280008E0FEF721FD02003B69D31A022B01D909
:102A38000323A2E11D4B1B6E02221340F1D018E0C4
:102A48001A4B1A6E194B01218A431A66FEF70CFDC0
:102A580003003B6108E0FEF707FD02003B69D31A5B
:102A6800022B01D9032388E1104B1B6E022213406D
:102A7800F1D17B681B680422134000D1C6E01F23F4
:102A8800FB1800221A70094B9B6838221340202B30
:102A98001ED1064BDB6D0222134000D1B6E07B68E5
:102AA8009B68002B00D0B1E0012366E100100240D2
:102AB800FFFFFEFFFFFFFBFFFF80FFFFFFC7FFFFDA
:102AC8000024F4003003002034030020FFFEFFFF41
:102AD800AC4BDA6B80235B05134001D1012300E086
:102AE8000023002B11D0A74BDA6BA64B8021490598
:102AF8000A43DA63A34BDA6B80235B051340FB6060
:102B0800FB681F23FB1801221A709F4B1A68802349
:102B18005B0013401AD19C4B1A689B4B80214900DB
:102B28000A431A60FEF7A0FC03003B6108E0FEF7C9
:102B38009BFC02003B69D31A022B01D903231CE139
:102B4800914B1A6880235B001340F0D07B689B6828
:102B5800012B06D18B4BDA6D8A4B01210A43DA65CA
:102B68001CE07B689B68052B0CD1864BDA6D854B86
:102B780004210A43DA65834BDA6D824B01210A434B
:102B8800DA650BE07F4BDA6D7E4B01218A43DA650B
:102B98007C4BDA6D7B4B04218A43DA657B689B6842
:102BA800002B14D0FEF760FC03003B6109E0FEF740
:102BB8005BFC02003B69D31A744A934201D9032390
:102BC800DBE0704BDB6D02221340F0D013E0FEF720
:102BD8004BFC03003B6109E0FEF746FC02003B6941
:102BE800D31A6A4A934201D90323C6E0654BDB6DC9
:102BF80002221340F0D11F23FB181B78012B05D1AB
:102C0800604BDA6B5F4B62490A40DA637B68DB69C9
:102C1800002B00D1B0E05B4B9B6838221340102B8F
:102C280000D178E07B68DB69022B53D1554B1A68D9
:102C3800544B58490A401A60FEF716FC03003B61E2
:102C480008E0FEF711FC02003B69D31A022B01D9F8
:102C5800032392E04B4B1A6880239B041340F0D166
:102C6800484BDB684C4A134019007B681A6A7B683A
:102C78005B6A1A437B689B6A1B021A437B68DB6AA0
:102C88001A437B681B6B1A433E4B0A43DA603D4B81
:102C98001A683C4B802149040A431A60394BDA68A8
:102CA800384B802149050A43DA60FEF7DDFB030053
:102CB8003B6108E0FEF7D8FB02003B69D31A022B00
:102CC80001D9032359E02F4B1A6880239B04134032
:102CD800F0D051E02B4B1A682A4B2E490A401A6053
:102CE800FEF7C2FB03003B6108E0FEF7BDFB0200F4
:102CF8003B69D31A022B01D903233EE0214B1A6802
:102D080080239B041340F0D11E4BDA681D4B2349E6
:102D18000A40DA6030E07B68DB69012B01D10123CE
:102D28002BE0184BDB687B617B6903221A407B68C8
:102D38001B6A9A421ED17B6970221A407B685B6AC3
:102D48009A4217D17A69FE23DB011A407B689B6A95
:102D58001B029A420ED17A69F8239B031A407B68BA
:102D6800DB6A9A4206D17B695B0F5A077B681B6B4B
:102D78009A4201D0012300E000231800BD4608B0A4
:102D880080BDC0460010024000700040881300005B
:102D9800FFFFFFEFFFFFFFFE8C80C11FFCFFFEEF70
:102DA80080B584B000AF786039607B68002B01D1B2
:102DB8000123E9E0764B1B68072213403A689A42E0
:102DC8001ED9734B1B68072293431900704B3A684E
:102DD8000A431A60FEF748FB0300FB6009E0FEF7B0
:102DE80043FB0200FB68D31A6A4A934201D90323C2
:102DF800CAE0674B1B68072213403A689A42EED133
:102E08007B681B680222134015D07B681B6804226C
:102E1800134006D0604B9A685F4BE021C9010A4312
:102E28009A605D4B9B685D4A134019007B689A68FD
:102E3800594B0A439A607B681B680122134057D09C
:102E48007B685B68012B07D1534B1A6880239B0270
:102E580013402BD1012397E07B685B68022B07D1D5
:102E68004D4B1A6880239B0413401FD101238BE02C
:102E78007B685B68002B07D1474B1A688023DB000F
:102E8800134013D101237FE07B685B68032B06D1D5
:102E9800414B1B6E0222134008D1012374E03E4BC4
:102EA800DB6D0222134001D101236DE03A4B9B6890
:102EB8000722934319007B685A68374B0A439A6084
:102EC800FEF7D2FA0300FB6009E0FEF7CDFA020034
:102ED800FB68D31A2F4A934201D9032354E02E4B9F
:102EE8009B6838221A407B685B68DB009A42ECD109
:102EF800274B1B68072213403A689A421ED2244B7C
:102F08001B68072293431900214B3A680A431A6049
:102F1800FEF7AAFA0300FB6009E0FEF7A5FA020033
:102F2800FB68D31A1B4A934201D903232CE0184BA0
:102F38001B68072213403A689A42EED17B681B68E7
:102F48000422134009D0144B9B68154A13401900FA
:102F58007B68DA68104B0A439A6000F029F8010090
:102F68000D4B9B681B0A0F221A400E4B9200D35838
:102F78001F2213400A00DA400B4B1A600B4B1B68E8
:102F88001800FEF715FA03001800BD4604B080BD0E
:102F9800002002408813000000100240FFF0FFFFED
:102FA800FF8FFFFF54600008300300203403002027
:102FB80080B586B000AF3C4B9B68382213400FD1D8
:102FC800394B1B68DB0A0722134001229A40130081
:102FD8003B6039683548FDF799F803003B615DE0CF
:102FE800314B9B6838221340082B02D1304B3B6190
:102FF80054E02D4B9B6838221340102B38D12A4BB4
:10300800DB6803221340FB60274BDB681B090722A0
:1030180013400133BB60FB68032B0DD1B96824480A
:10302800FDF774F8030019001F4BDB681B0A7F22A9
:1030380013404B437B610DE0B9681C48FDF766F807
:1030480003001900184BDB681B0A7F2213404B430F
:103058007B61C046144BDB685B0F072213400133CA
:103068007B6079687869FDF751F803003B6115E0EA
:103078000D4B9B6838221340202B03D180231B0261
:103088003B610BE0084B9B6838221340182B03D197
:10309800FA23DB013B6101E000233B613B69180037
:1030A800BD4606B080BDC046001002400024F400B2
:1030B80000127A0080B500AF024B1B681800BD46AD
:1030C80080BDC04630030020B0B500AFFFF7F2FF67
:1030D8000400FFF749FB03001A0B054B9200D35875
:1030E8001F221340DC4023001800BD46B0BDC04677
:1030F8009460000880B582B000AF78607B68002BD0
:1031080001D101234AE07B683D229B5CDBB2002BA6
:1031180007D17B683C22002199547B681800FEF790
:103128000BF87B683D22022199547B681A687B68FA
:1031380004331900100000F0B3FA7B68482201211B
:1031480099547B683E22012199547B683F220121D2
:1031580099547B684022012199547B6841220121BE
:1031680099547B684222012199547B6843220121AA
:1031780099547B684422012199547B684522012196
:1031880099547B684622012199547B684722012182
:1031980099547B683D220121995400231800BD46AB
:1031A80002B080BD80B584B000AF78607B683D22F6
:1031B8009B5CDBB2012B01D001233CE07B683D2204
:1031C800022199547B681B68DA687B681B680121B7
:1031D8000A43DA607B681B68194A934209D07B6806
:1031E8001B68184A934204D07B681B68164A9342AE
:1031F80016D17B681B689B68144A1340FB60FB6808
:10320800062B16D0FA6880235B029A4211D07B689D
:103218001B681A687B681B6801210A431A6008E06A
:103228007B681B681A687B681B6801210A431A605F
:1032380000E0C04600231800BD4604B080BDC0466B
:10324800002C01400004004000400140070001003C
:1032580080B582B000AF78607B681B681B6902226A
:103268001340022B24D17B681B68DB6802221340C1
:10327800022B1DD17B681B68032252421A617B68AE
:1032880001221A777B681B689B690322134004D0CC
:103298007B68180000F0ECF907E07B68180000F084
:1032A800DFF97B68180000F0EBF97B6800221A77D9
:1032B8007B681B681B6904221340042B25D17B689B
:1032C8001B68DB6804221340042B1ED17B681B6833
:1032D800052252421A617B6802221A777B681B68B2
:1032E8009A69C0239B00134004D07B68180000F043
:1032F800BFF907E07B68180000F0B2F97B68180096
:1033080000F0BEF97B6800221A777B681B681B698E
:1033180008221340082B24D17B681B68DB6808222D
:103328001340082B1DD17B681B68092252421A6181
:103338007B6804221A777B681B68DB6903221340C9
:1033480004D07B68180000F093F907E07B68180048
:1033580000F086F97B68180000F092F97B6800227B
:103368001A777B681B681B6910221340102B25D124
:103378007B681B68DB6810221340102B1ED17B680A
:103388001B68112252421A617B6808221A777B68EF
:103398001B68DA69C0239B00134004D07B681800BF
:1033A80000F066F907E07B68180000F059F97B68BF
:1033B800180000F065F97B6800221A777B681B68A3
:1033C8001B6901221340012B0FD17B681B68DB6846
:1033D80001221340012B08D17B681B68022252424C
:1033E8001A617B681800FDF7DBF87B681B681B69AE
:1033F80080221340802B0FD17B681B68DB688022FA
:103408001340802B08D17B681B68812252421A61C5
:103418007B68180000F0C6FA7B681B681A6980236D
:103428005B001A4080235B009A420ED17B681B68C0
:10343800DB6880221340802B07D17B681B681C4AFD
:103448001A617B68180000F0B5FA7B681B681B6975
:1034580040221340402B0FD17B681B68DB68402259
:103468001340402B08D17B681B68412252421A61E5
:103478007B68180000F00CF97B681B681B69202228
:103488001340202B0FD17B681B68DB682022134078
:10349800202B08D17B681B68212252421A617B6865
:1034A800180000F077FAC046BD4602B080BDC0469D
:1034B800FFFEFFFF80B584B000AF786039600F234E
:1034C800FB1800221A707B683C229B5C012B01D1FF
:1034D8000223BCE07B683C22012199547B683D2291
:1034E800022199547B681B689B68BB60BB685A4A79
:1034F8001340BB60BB68594A1340BB607B681B68BC
:10350800BA689A603B681B6880229201934240D057
:1035180080229201934200D988E08022520193428E
:1035280000D188E080225201934200D97EE0702BBE
:1035380018D000D97AE0602B4FD000D976E0502B14
:103548003BD000D972E0402B57D000D96EE0302B29
:1035580063D06BD8202B60D068D8002B5DD0102B9F
:103568005BD063E07B6818683B6899683B685A6879
:103578003B68DB6800F086F97B681B689B68BB606A
:10358800BB6877221343BB607B681B68BA689A6084
:1035980052E07B6818683B6899683B685A683B68E2
:1035A800DB6800F06FF97B681B689A687B681B68AA
:1035B8008021C9010A439A603EE07B6818683B682D
:1035C80059683B68DB681A0000F0E0F87B681B6804
:1035D8005021180000F03AF92EE07B6818683B6823
:1035E80059683B68DB681A0000F0FEF87B681B68C6
:1035F8006021180000F02AF91EE07B6818683B6813
:1036080059683B68DB681A0000F0C0F87B681B68E3
:103618004021180000F01AF90EE07B681A683B6830
:103628001B681900100000F011F905E00F23FB18C2
:1036380001221A7000E0C0467B683D22012199549E
:103648007B683C22002199540F23FB181B78180033
:10365800BD4604B080BDC04688FFCEFFFF00FFFF17
:1036680080B582B000AF7860C046BD4602B080BD6C
:1036780080B582B000AF7860C046BD4602B080BD5C
:1036880080B582B000AF7860C046BD4602B080BD4C
:1036980080B582B000AF7860C046BD4602B080BD3C
:1036A80080B584B000AF786039607B681B68FB60C8
:1036B8007B682F4A934203D07B682E4A934208D1F5
:1036C800FB6870229343FB603B685B68FA681343AE
:1036D800FB607B68264A934213D07B68254A934255
:1036E8000FD07B68244A93420BD07B68234A9342CD
:1036F80007D07B68224A934203D07B68214A9342D1
:1037080008D1FB68204A1340FB603B68DB68FA6815
:103718001343FB60FB68802293431A003B685B6994
:103728001343FB607B68FA681A603B689A687B6899
:10373800DA623B681A687B689A627B680C4A934233
:103748000BD07B680D4A934207D07B680C4A9342A2
:1037580003D07B680B4A934203D13B681A697B68A4
:103768001A637B6801225A61C046BD4604B080BD19
:10377800002C0140000400400020004000400140AF
:103788000044014000480140FFFCFFFF80B586B0BF
:1037980000AFF860B9607A60FB681B6A7B61FB6800
:1037A8001B6A012293431A00FB681A62FB689B6933
:1037B8003B613B69F02293433B617B681B013A699B
:1037C80013433B617B690A2293437B617A69BB6837
:1037D80013437B61FB683A699A61FB687A691A62EC
:1037E800C046BD4606B080BD80B586B000AFF86063
:1037F800B9607A60FB681B6A102293431A00FB6861
:103808001A62FB689B697B61FB681B6A3B617B6989
:103818000D4A13407B617B681B037A6913437B6104
:103828003B69A02293433B61BB681B013A69134380
:103838003B61FB687A699A61FB683A691A62C0461B
:10384800BD4606B080BDC046FF0FFFFF80B584B0FF
:1038580000AF786039607B689B68FB60FB68084A4A
:103868001340FB603A68FB68134307221343FB606D
:103878007B68FA689A60C046BD4604B080BDC04601
:103888008FFFCFFF80B586B000AFF860B9607A606F
:103898003B60FB689B687B617B69094A13407B61DD
:1038A8003B681A027B681A43BB6813437A6913435F
:1038B8007B61FB687A699A60C046BD4606B080BDE8
:1038C800FF00FFFF80B584B000AF786039607B6887
:1038D8003C229B5C012B01D102234FE07B683C22F8
:1038E800012199547B683D22022199547B681B6809
:1038F8005B68FB607B681B689B68BB607B681B68B8
:10390800204A934208D1FB681F4A1340FB603B687A
:103918005B68FA681343FB60FB6870229343FB60A3
:103928003B681B68FA681343FB607B681B68FA688E
:103938005A607B681B68134A934209D07B681B68EE
:10394800124A934204D07B681B68114A93420CD1F7
:10395800BB6880229343BB603B689B68BA6813438B
:10396800BB607B681B68BA689A607B683D2201214E
:1039780099547B683C220021995400231800BD46C5
:1039880004B080BD002C0140FFFF0FFF0004004081
:103998000040014080B582B000AF7860C046BD46A7
:1039A80002B080BD80B582B000AF7860C046BD4629
:1039B80002B080BD80B582B000AF7860C046BD4619
:1039C80002B080BD80B582B000AF78607B68002B04
:1039D80001D1012346E07B6888229B58002B07D140
:1039E8007B688422002199547B681800FDF7CAFB84
:1039F8007B688822242199507B681B681A687B6839
:103A08001B6801218A431A607B68180000F066FC75
:103A18000300012B01D1012324E07B689B6A002B62
:103A280003D07B68180000F0FDFD7B681B685A68AE
:103A38007B681B680D490A405A607B681B689A6856
:103A48007B681B682A218A439A607B681B681A680E
:103A58007B681B6801210A431A607B68180000F024
:103A680095FE03001800BD4602B080BDFFB7FFFFFA
:103A780080B58AB002AFF860B9603B60BB1D1A80A0
:103A8800FB6888229B58202B00D088E0BB68002B5D
:103A980003D0BB1D1B88002B01D1012380E0FB68EC
:103AA8009A6880235B019A4209D1FB681B69002B45
:103AB80005D1BB680122134001D0012370E0FB68E7
:103AC800902200219950FB68882221219950FDF706
:103AD800CBFC03007B61FB68BA1D542112885A5243
:103AE800FB68BA1D562112885A52FB689A688023CF
:103AF8005B019A4208D1FB681B69002B04D10023A3
:103B0800FB61BB68BB6103E0BB68FB610023BB6171
:103B18002CE07A69F8683B68009313000022802142
:103B280000F082FE031E01D0032339E0FB69002B5D
:103B38000BD1BB691B881A00FB681B68D205D20D24
:103B48009A62BB690233BB6107E0FB691A78FB68BC
:103B58001B689A62FB690133FB61FB6856229B5A1A
:103B68009BB2013B99B2FB6856229952FB685622D8
:103B78009B5A9BB2002BCCD17A69F8683B680093BA
:103B880013000022402100F04FFE031E01D0032342
:103B980006E0FB68882220219950002300E00223D8
:103BA8001800BD4608B080BD80B588B000AFF86089
:103BB800B960BB1D1A80FB688C229B58202B45D10D
:103BC800BB68002B03D0BB1D1B88002B01D1012330
:103BD8003DE0FB689A6880235B019A4209D1FB6843
:103BE8001B69002B05D1BB680122134001D00123BA
:103BF8002DE0FB680022DA66FB681B685A688023A0
:103C08001B04134019D0EFF310833B613B69FB6140
:103C180001237B617B6983F31088C046FB681B68BE
:103C28001A68FB681B688021C9040A431A60FB698B
:103C3800BB61BB6983F31088C046BB1D1A88B9688D
:103C4800FB68180000F0B8FE030000E0022318002B
:103C5800BD4608B080BD0000B0B5AAB000AF78601E
:103C68007B681B68DB69A422B9180B607B681B683A
:103C78001B68A02039180B607B681B689B689C2414
:103C880039190B601100BB181B68A24A134098220F
:103C9800BD182B60BB181B68002B1AD17B181B683A
:103CA8002022134015D03B181B682022134005D151
:103CB8003B191A6880235B0513400AD07B685B6F49
:103CC800002B00D1DCE27B685B6F7A6810009847B4
:103CD800D6E29823FB181B68002B00D122E19C2315
:103CE800FB181B688C4A134006D1A023FB181B68DD
:103CF8008A4A134000D115E1A423FB181B6801224E
:103D0800134012D0A023FB181A6880235B001340CD
:103D18000BD07B681B6801221A627B6890229B5833
:103D280001221A437B6890215A50A423FB181B6870
:103D38000222134011D09C23FB181B680122134058
:103D48000BD07B681B6802221A627B6890229B5802
:103D580004221A437B6890215A50A423FB181B683D
:103D68000422134011D09C23FB181B680122134026
:103D78000BD07B681B6804221A627B6890229B58D0
:103D880002221A437B6890215A50A423FB181B680F
:103D98000822134017D0A023FB181B6820221340C9
:103DA80005D19C23FB181B685B4A13400BD07B682A
:103DB8001B6808221A627B6890229B5808221A43C3
:103DC8007B6890215A50A423FB181A6880231B0192
:103DD800134013D0A023FB181A688023DB04134078
:103DE8000CD07B681B68802212011A627B689022C3
:103DF8009B5820221A437B6890215A507B68902256
:103E08009B58002B00D13DE2A423FB181B682022FD
:103E1800134015D0A023FB181B682022134006D19D
:103E28009C23FB181A6880235B05134008D07B6825
:103E38005B6F002B04D07B685B6F7A681000984733
:103E48007B6890229B5894217A1813607B681B68C2
:103E58009B6840221340402B04D07B181B68282203
:103E680013404CD07B68180000F0CAFE7B681B68C2
:103E78009B6840221340402B3CD1EFF310833B66F4
:103E88003B6E90203A18136001237B667B6E83F3A8
:103E98001088C0467B681B689A687B681B6840214D
:103EA8008A439A603B181B68BB66BB6E83F3108815
:103EB800C0467B6880229B58002B16D07B688022E6
:103EC8009B58174A9A637B6880229B581800FEF714
:103ED8001DF9031E1CD07B6880229B589B6B7A6857
:103EE800802152581000984712E07B68180000F0B3
:103EF800E1F90DE07B68180000F0DCF908E07B6868
:103F0800180000F0D7F97B68902200219950B9E198
:103F1800C046B7E10F0800000100001020010004AE
:103F2800D54C00087B68DB6E012B00D03EE1A42352
:103F3800FB181B681022134000D137E1A023FB189F
:103F48001B681022134000D130E17B681B681022E7
:103F58001A627B681B689B6840221340402B00D084
:103F6800A4E07B6880229B581B685A687E217B18D6
:103F78001A807B181B88002B00D185E17B685C22A6
:103F88009B5A7A1812889A4200D37DE17B687A1886
:103F98005E2112885A527B6880229B581B681B68D6
:103FA8002022134070D1EFF310833B633B6BBB6758
:103FB80001237B637B6B83F31088C0467B681B6897
:103FC8001A687B681B68B4490A401A60BB6FBB63F8
:103FD800BB6B83F31088C046EFF31083FB63FB6B66
:103FE8007B6701233B643B6C83F31088C0467B6886
:103FF8001B689A687B681B6801218A439A607B6FFB
:104008007B647B6C83F31088C046EFF31083BB643A
:10401800BB6C3B670123FB64FB6C83F31088C046D1
:104028007B681B689A687B681B6840218A439A6092
:104038003B6F3B653B6D83F31088C0467B688C22E1
:10404800202199507B680022DA66EFF310837B65A4
:104058007B6DFB660123BB65BB6D83F31088C0468F
:104068007B681B681A687B681B6810218A431A6082
:10407800FB6EFB65FB6D83F31088C0467B6880226E
:104088009B581800FDF7E0FF7B6802221A677B68DF
:104098005C229A5A7B685E215B5A9BB2D31A9AB209
:1040A8007B681100180000F00DF9EDE07B685C22D8
:1040B800995A7B685E229B5A9AB28E203B188A1ABC
:1040C8001A807B685E229B5A9BB2002B00D1DDE0F0
:1040D8003B181B88002B00D1D8E0EFF31083FB605E
:1040E800FB6888243A19136001233B613B6983F319
:1040F8001088C0467B681B681A687B681B6867491C
:104108000A401A603B191B687B617B6983F310883E
:10411800C046EFF31083BB61BB6984243A1913606E
:104128000123FB61FB6983F31088C0467B681B6829
:104138009A687B681B685A490A409A603B191B6851
:104148003B623B6A83F31088C0467B688C2220213F
:1041580099507B680022DA667B6800225A67EFF381
:1041680010837B627B6A80243A1913600123BB6247
:10417800BB6A83F31088C0467B681B681A687B6833
:104188001B6810218A431A603B191B68FB62FB6A93
:1041980083F31088C0467B6802221A673B181A8886
:1041A8007B681100180000F08DF86FE0A423FB185D
:1041B8001A6880235B03134010D09C23FB181A68ED
:1041C8008023DB03134009D07B681B6880225203DD
:1041D8001A627B68180001F01DFA5AE0A423FB1844
:1041E8001B688022134016D0A023FB181B6880226E
:1041F800134006D19C23FB181A6880231B04134024
:1042080009D07B689B6F002B42D07B689B6F7A68D4
:10421800100098473CE0A423FB181B684022134079
:104228000AD0A023FB181B684022134004D07B68E7
:10423800180000F062FD2CE0A423FB181A68802304
:104248001B0413400BD0A023FB181A688023DB053E
:10425800134004D07B68180001F0ECF919E0A4239E
:10426800FB181A6880235B04134012D0A023FB18A4
:104278001B68002B0DDA7B68180001F0D3F908E001
:10428800C04606E0C04604E0C04602E0C04600E082
:10429800C046BD462AB0B0BDFFFEFFFFDFFEFFFFF0
:1042A800FEFFFFEF80B582B000AF7860C046BD4624
:1042B80002B080BD80B582B000AF7860C046BD4610
:1042C80002B080BD80B582B000AF78600A00BB1C28
:1042D8001A80C046BD4602B080BD000080B588B0D7
:1042E80000AF78601A23FB1800221A707B689A685E
:1042F8007B681B691A437B685B691A437B68DB69C7
:104308001343FB617B681B681B68BC4A1340190098
:104318007B681B68FA690A431A607B681B685B68DC
:10432800B74A134019007B68DA687B681B680A4340
:104338005A607B689B69FB617B681B6AFA69134357
:10434800FB617B681B689B68AE4A134019007B6859
:104358001B68FA690A439A607B681B68DB6A0F224C
:10436800934319007B685A6A7B681B680A43DA62C0
:104378007B681B68A44A934227D1A44B5B6D032238
:104388001340032B17D01BD8022B0AD018D8002BA8
:1043980002D0012B0AD013E01B23FB1800221A704D
:1043A80058E01B23FB1802221A7053E01B23FB184A
:1043B80004221A704EE01B23FB1808221A7049E0E9
:1043C8001B23FB1810221A7044E07B681B68904A74
:1043D800934227D18D4B5B6D0C2213400C2B17D0C9
:1043E8001BD8082B0AD018D8002B02D0042B0AD0CF
:1043F80013E01B23FB1800221A702BE01B23FB1869
:1044080002221A7026E01B23FB1804221A7021E0EE
:104418001B23FB1808221A701CE01B23FB18102210
:104428001A7017E07B681B687A4A934204D11B23F1
:10443800FB1800221A700DE07B681B68764A9342CD
:1044480004D11B23FB1800221A7003E01B23FB185E
:1044580010221A707B68DA6980231B029A4200D006
:1044680065E01B23FB181B78082B15D018DC042BE0
:104478000DD015DC002B02D0022B05D010E0FEF782
:1044880023FE03007B6112E0644B7B610FE0FEF7C3
:104498008FFD03007B610AE080231B027B6106E03D
:1044A80000237B611A23FB1801221A70C0467B691E
:1044B800002B00D18DE07B685A6A594B5200D35AC1
:1044C80019007869FBF722FE03005A007B685B68D5
:1044D8005B08D2187B685B6819001000FBF716FEB2
:1044E80003003B613B690F2B1CD93A6980235B02AF
:1044F8009A4217D23B699AB20E203B180F218A4381
:104508001A803B695B089BB20722134099B23B189B
:104518003A1812880A431A807B681B683A1812886E
:10452800DA6056E01A23FB1801221A7051E01B23A7
:10453800FB181B78082B15D018DC042B0DD015DCC4
:10454800002B02D0022B05D010E0FEF7BDFD0300C2
:104558007B6112E0314B7B610FE0FEF729FD030020
:104568007B610AE080231B027B6106E000237B61FC
:104578001A23FB1801221A70C0467B69002B28D029
:104588007B685A6A264B5200D35A19007869FBF7A0
:10459800BDFD03001A007B685B685B08D2187B6866
:1045A8005B6819001000FBF7B1FD03003B613B6934
:1045B8000F2B0AD93A6980235B029A4205D23B69DC
:1045C8009AB27B681B68DA6003E01A23FB180122A1
:1045D8001A707B686A22012199527B68682201213E
:1045E80099527B6800225A677B6800229A671A23CF
:1045F800FB181B781800BD4608B080BDF369FFCFD3
:10460800FFCFFFFFFFF4FF11003801400010024008
:104618000044004000480040004C00400024F400E2
:10462800B460000880B582B000AF78607B689B6A90
:10463800012213400BD07B681B685B684A4A134011
:1046480019007B68DA6A7B681B680A435A607B68D2
:104658009B6A022213400BD07B681B685B68434A45
:10466800134019007B681A6B7B681B680A435A6001
:104678007B689B6A042213400BD07B681B685B68CD
:104688003B4A134019007B685A6B7B681B680A43D6
:104698005A607B689B6A082213400BD07B681B68B2
:1046A8005B68344A134019007B689A6B7B681B6807
:1046B8000A435A607B689B6A102213400BD07B68C0
:1046C8001B689B682C4A134019007B68DA6B7B686F
:1046D8001B680A439A607B689B6A202213400BD0B0
:1046E8007B681B689B68254A134019007B681A6C15
:1046F8007B681B680A439A607B689B6A4022134068
:104708001DD07B681B685B681D4A134019007B68D5
:104718005A6C7B681B680A435A607B685A6C802312
:104728005B039A420BD17B681B685B68154A134090
:1047380019007B689A6C7B681B680A435A607B681F
:104748009B6A802213400BD07B681B685B680E4A0B
:10475800134019007B68DA6C7B681B680A435A604F
:10476800C046BD4602B080BDFFFFFDFFFFFFFEFF54
:10477800FFFFFBFFFF7FFFFFFFEFFFFFFFDFFFFFF5
:10478800FFFFEFFFFFFF9FFFFFFFF7FF80B586B03A
:1047980002AF78607B68902200219950FCF764FE94
:1047A8000300FB607B681B681B6808221340082B0A
:1047B8000CD1FB688022910378681A4A0092002283
:1047C80000F032F8031E01D0032326E07B681B6843
:1047D8001B6804221340042B0CD1FB688022D103F0
:1047E8007868104A0092002200F01EF8031E01D0DB
:1047F800032312E07B688822202199507B688C2251
:10480800202199507B680022DA667B6800221A67AB
:104818007B6884220021995400231800BD4604B007
:1048280080BDC046FFFFFF0180B594B000AFF860BF
:10483800B9603B60FB1D1A70A7E0BB6D013300D166
:10484800A3E0FCF711FE02003B68D31ABA6D9A4246
:1048580002D3BB6D002B3FD1EFF31083BB62BB6A61
:104868007B640123FB62FB6A83F31088C046FB6804
:104878001B681A68FB681B684E490A401A607B6C03
:104888003B633B6B83F31088C046EFF310837B6375
:104898007B6B3B640123BB63BB6B83F31088C0460F
:1048A800FB681B689A68FB681B6801218A439A6049
:1048B8003B6CFB63FB6B83F31088C046FB68882264
:1048C80020219950FB688C2220219950FB68842272
:1048D80000219954032369E0FB681B681B680422C4
:1048E800134052D0FB681B68DA6980231B011A4009
:1048F80080231B019A4248D1FB681B688022120161
:104908001A62EFF310833B613B69FB6401237B610F
:104918007B6983F31088C046FB681B681A68FB68CC
:104928001B6824490A401A60FB6CBB61BB6983F3AE
:104938001088C046EFF31083FB61FB69BB64012359
:104948003B623B6A83F31088C046FB681B689A6821
:10495800FB681B6801218A439A60BB6C7B627B6A97
:1049680083F31088C046FB68882220219950FB6891
:104978008C2220219950FB68902220219950FB68B5
:10498800842200219954032310E0FB681B68DB692B
:10499800BA681340BA68D31A5A425341DBB21A00B4
:1049A800FB1D1B789A4200D147E700231800BD463B
:1049B80014B080BD5FFEFFFF80B598B000AFF8600F
:1049C800B960BB1D1A80FB68BA689A65FB68BA1D96
:1049D8005C2112885A52FB68BA1D5E2112885A520D
:1049E800FB6800225A67FB689A6880235B019A4239
:1049F8000DD1FB681B69002B04D1FB6860227B4941
:104A080099522EE0FB686022FF21995229E0FB6849
:104A18009B68002B0DD1FB681B69002B04D1FB6838
:104A28006022FF2199521CE0FB6860227F21995285
:104A380017E0FB689A6880235B059A420DD1FB68F2
:104A48001B69002B04D1FB6860227F21995208E082
:104A5800FB6860223F21995203E0FB686022002135
:104A68009952FB68902200219950FB688C222221E0
:104A78009950EFF310833B643B6CFB6501237B6427
:104A88007B6C83F31088C046FB681B689A68FB68D8
:104A98001B6801210A439A60FB6DBB64BB6C83F3FE
:104AA8001088C046FB685A6E80239B059A4250D1F5
:104AB800FB6868229B5ABA1D12889A4249D3FB6840
:104AC8009A6880235B019A4207D1FB681B69002B17
:104AD80003D1FB68464A5A6702E0FB68454A5A67B1
:104AE800FB681B69002B19D0EFF310837B637B6B8A
:104AF800BB650123BB63BB6B83F31088C046FB68AF
:104B08001B681A68FB681B68802149000A431A6001
:104B1800BB6DFB63FB6B83F31088C046EFF3108318
:104B2800BB62BB6A7B650123FB62FB6A83F3108867
:104B3800C046FB681B689A68FB681B6880214905AA
:104B48000A439A607B6D3B633B6B83F31088C046D6
:104B580047E0FB689A6880235B019A4207D1FB68AB
:104B68001B69002B03D1FB68234A5A6702E0FB68E4
:104B7800224A5A67FB681B69002B19D0EFF3108390
:104B8800FB61FB69FB6401233B623B6A83F310888A
:104B9800C046FB681B681A68FB681B6890214900BF
:104BA8000A431A60FB6C7B627B6A83F3108818E007
:104BB800EFF310833B613B693B6501237B617B69B4
:104BC80083F31088C046FB681B681A68FB681B687B
:104BD80020210A431A603B6DBB61BB6983F31088CF
:104BE800C04600231800BD4618B080BDFF01000074
:104BF8003153000845500008D14E00085D4D0008AB
:104C080080B58EB000AF7860EFF310837B617B696D
:104C18007B630123BB61BB6983F31088C0467B6853
:104C28001B681A687B681B6826490A401A607B6BF8
:104C3800FB61FB6983F31088C046EFF310833B6286
:104C48003B6A3B6301237B627B6A83F31088C0461F
:104C58007B681B689A687B681B681B490A409A60D6
:104C68003B6BBB62BB6A83F31088C0467B68DB6E14
:104C7800012B18D1EFF31083BB60BB68FB620123E3
:104C8800FB60FB6883F31088C0467B681B681A6862
:104C98007B681B6810218A431A60FB6A3B613B6989
:104CA80083F31088C0467B688C22202199507B684A
:104CB8000022DA667B6800225A67C046BD460EB0FD
:104CC80080BDC046DFFEFFFFFEFFFFEF80B584B06A
:104CD80000AF78607B689B6AFB60FB685E220021FE
:104CE8009952FB68562200219952FB681800FFF779
:104CF800E1FAC046BD4604B080BD80B586B000AFBD
:104D08007860EFF31083BB60BB687B610123FB60B5
:104D1800FB6883F31088C0467B681B681A687B6849
:104D28001B6840218A431A607B693B613B6983F3B6
:104D38001088C0467B688822202199507B68002211
:104D48009A677B681800FFF7ADFAC046BD4606B003
:104D580080BD000080B590B000AF78603E203B1861
:104D68007A686021525A1A807B688C229B58222BC1
:104D780000D09AE07B681B685A6A3C217B181A802D
:104D88007B181B88DAB23B181B88D9B27B689B6DED
:104D98000A40D2B21A707B689B6D5A1C7B689A6570
:104DA8007B685E229B5A9BB2013B99B27B685E226C
:104DB80099527B685E229B5A9BB2002B00D07CE004
:104DC800EFF31083BB61BB69BB630123FB61FB6924
:104DD80083F31088C0467B681B681A687B681B6869
:104DE80038490A401A60BB6B3B623B6A83F3108800
:104DF800C046EFF310837B627B6A7B630123BB624F
:104E0800BB6A83F31088C0467B681B689A687B6816
:104E18001B6801218A439A607B6BFB62FB6A83F300
:104E28001088C0467B688C22202199507B6800221C
:104E38005A677B6800221A677B68DB6E012B2FD1CB
:104E48007B680022DA66EFF31083FB60FB683B6344
:104E580001233B613B6983F31088C0467B681B686C
:104E68001A687B681B6810218A431A603B6B7B6158
:104E78007B6983F31088C0467B681B68DB69102256
:104E88001340102B03D17B681B6810221A627B68C1
:104E98005C229A5A7B6811001800FFF713FA0CE09D
:104EA8007B681800FBF7A8FC07E07B681B689A6919
:104EB8007B681B6808210A439A61C046BD4610B04A
:104EC80080BDC046DFFEFFFF80B590B000AF7860C0
:104ED8003E203B187A686021525A1A807B688C22DF
:104EE8009B58222B00D09AE07B681B685A6A3C21A9
:104EF8007B181A807B689B6DBB637B183A181B88EC
:104F0800128813409AB2BB6B1A807B689B6D9A1CFF
:104F18007B689A657B685E229B5A9BB2013B99B27B
:104F28007B685E2299527B685E229B5A9BB2002B5B
:104F380000D07CE0EFF310837B617B697B63012306
:104F4800BB61BB6983F31088C0467B681B681A681D
:104F58007B681B6838490A401A607B6BFB61FB69F8
:104F680083F31088C046EFF310833B623B6A3B63D0
:104F780001237B627B6A83F31088C0467B681B68C9
:104F88009A687B681B6801218A439A603B6BBB6205
:104F9800BB6A83F31088C0467B688C222021995015
:104FA8007B6800225A677B6800221A677B68DB6E81
:104FB800012B2FD17B680022DA66EFF31083BB60E8
:104FC800BB68FB620123FB60FB6883F31088C04663
:104FD8007B681B681A687B681B6810218A431A6003
:104FE800FB6A3B613B6983F31088C0467B681B689A
:104FF800DB6910221340102B03D17B681B68102239
:105008001A627B685C229A5A7B6811001800FFF7C5
:1050180059F90CE07B681800FBF7EEFB07E07B68AA
:105028001B689A697B681B6808210A439A61C04615
:10503800BD4610B080BDC046DFFEFFFF80B59CB006
:1050480000AF78606A23FB187A686021525A1A8088
:105058007B681B68DB69FB667B681B681B687B6673
:105068007B681B689B683B667B688C229B58222B5D
:1050780000D044E15E23FB187A686821525A1A80EE
:10508800EBE07B681B685A6A5C217B181A807B18E6
:105098001B88DAB26A23FB181B88D9B27B689B6D20
:1050A8000A40D2B21A707B689B6D5A1C7B689A655D
:1050B8007B685E229B5A9BB2013B99B27B685E2259
:1050C80099527B681B68DB69FB66FB6E07221340FD
:1050D80049D0FB6E0122134010D07A6E80235B000A
:1050E80013400BD07B681B6801221A627B689022F0
:1050F8009B5801221A437B6890215A50FB6E02226A
:1051080013400FD03B6E012213400BD07B681B6805
:1051180002221A627B6890229B5804221A437B68F9
:1051280090215A50FB6E042213400FD03B6E01228F
:1051380013400BD07B681B6804221A627B6890229C
:105148009B5802221A437B6890215A507B68902210
:105158009B58002B07D07B681800FFF7ABF87B68DB
:105168009022002199507B685E229B5A9BB2002BAB
:1051780073D1EFF31083FB62FB6ABB6501233B63CA
:105188003B6B83F31088C0467B681B681A687B6892
:105198001B6861490A401A60BB6D7B637B6B83F3B4
:1051A8001088C046EFF31083BB63BB6B7B6501239C
:1051B800FB63FB6B83F31088C0467B681B689A68A7
:1051C8007B681B6855490A409A607B6D3B643B6C61
:1051D80083F31088C0467B688C22202199507B6815
:1051E80000225A677B6800221A677B68DB6E012BF6
:1051F8002FD17B680022DA66EFF310833B623B6AAB
:105208003B6501237B627B6A83F31088C0467B6819
:105218001B681A687B681B6810218A431A603B6DFB
:10522800BB62BB6A83F31088C0467B681B68DB6976
:1052380010221340102B03D17B681B6810221A62BE
:105248007B685C229A5A7B6811001800FFF73AF8CD
:1052580003E07B681800FBF7CFFA5E23FB181B8876
:10526800002B04D0FB6E2022134000D009E74E200B
:105278003B187A685E21525A1A8001007B181B88F5
:10528800002B44D07B6868229B5A7A1812889A426D
:105298003DD2EFF31083BB60BB68BB640123FB60A6
:1052A800FB6883F31088C0467B681B689A687B6834
:1052B8001B681B490A409A60BB6C3B613B6983F3DE
:1052C8001088C0467B68174A5A67EFF310837B61E2
:1052D8007B697B640123BB61BB6983F31088C0468B
:1052E8007B681B681A687B681B6820210A431A6060
:1052F8007B6CFB61FB6983F31088C04607E07B6821
:105308001B689A697B681B6808210A439A61C04632
:10531800BD461CB080BDC046FFFEFFFFFEFFFFEF8D
:10532800FFFFFFEF5D4D000880B59EB000AF7860CD
:105338007223FB187A686021525A1A807B681B68AE
:10534800DB697B677B681B681B68FB667B681B687F
:105358009B68BB667B688C229B58222B00D044E15B
:105368006623FB187A686821525A1A80EBE07B683A
:105378001B685A6A64217B181A807B689B6D3B66A0
:105388007B187222BA181B88128813409AB23B6E97
:105398001A807B689B6D9A1C7B689A657B685E2285
:1053A8009B5A9BB2013B99B27B685E2299527B68FB
:1053B8001B68DB697B677B6F0722134049D07B6FD3
:1053C8000122134010D0FA6E80235B0013400BD0EB
:1053D8007B681B6801221A627B6890229B58012215
:1053E8001A437B6890215A507B6F022213400FD0DA
:1053F800BB6E012213400BD07B681B6802221A6225
:105408007B6890229B5804221A437B6890215A504B
:105418007B6F042213400FD0BB6E012213400BD0C8
:105428007B681B6804221A627B6890229B580222C0
:105438001A437B6890215A507B6890229B58002B16
:1054480007D07B681800FEF735FF7B6890220021A3
:1054580099507B685E229B5A9BB2002B73D1EFF365
:1054680010833B633B6BFB6501237B637B6B83F39F
:105478001088C0467B681B681A687B681B6861498E
:105488000A401A60FB6DBB63BB6B83F31088C04690
:10549800EFF31083FB63FB6BBB6501233B643B6C41
:1054A80083F31088C0467B681B689A687B681B6812
:1054B80055490A409A60BB6D7B647B6C83F3108806
:1054C800C0467B688C22202199507B6800225A674D
:1054D8007B6800221A677B68DB6E012B2FD17B6803
:1054E8000022DA66EFF310837B627B6A7B65012317
:1054F800BB62BB6A83F31088C0467B681B681A6866
:105508007B681B6810218A431A607B6DFB62FB6A0B
:1055180083F31088C0467B681B68DB691022134040
:10552800102B03D17B681B6810221A627B685C22EF
:105538009A5A7B6811001800FEF7C4FE03E07B68E6
:105548001800FBF759F96623FB181B88002B04D0B9
:105558007B6F2022134000D009E752203B187A685D
:105568005E21525A1A8001007B181B88002B44D0F8
:105578007B6868229B5A7A1812889A423DD2EFF3C8
:105588001083FB60FB68FB6401233B613B6983F389
:105598001088C0467B681B689A687B681B681B4933
:1055A8000A409A60FB6C7B617B6983F31088C04674
:1055B8007B68174A5A67EFF31083BB61BB69BB640A
:1055C8000123FB61FB6983F31088C0467B681B6875
:1055D8001A687B681B6820210A431A60BB6C3B620F
:1055E8003B6A83F31088C04607E07B681B689A69AA
:1055F8007B681B6808210A439A61C046BD461EB0F5
:1056080080BDC046FFFEFFFFFEFFFFEFFFFFFFEF7D
:10561800D14E000880B582B000AF7860C046BD4664
:1056280002B080BD80B582B000AF7860C046BD468C
:1056380002B080BD80B582B000AF7860C046BD467C
:1056480002B080BD014B18687047C0463C0300207B
:1056580070B500260C4D0D4C641BA410A64209D150
:10566800002600F08BFC0A4D0A4C641BA410A642CD
:1056780005D170BDB300EB5898470136EEE7B3008B
:10568800EB5898470136F2E700610008006100080E
:105698000061000804610008002310B59A4200D197
:1056A80010BDCC5CC4540133F8E703008218934260
:1056B80000D1704719700133F9E700000EB400B546
:1056C8000B499CB01DAB02900690079104910948C4
:1056D800094904CB0591006802A9019300F070F80C
:1056E8000023029A13701CB008BC03B01847C046C8
:1056F800FFFFFF7F3C0300200802FFFFF0B58E6824
:1057080085B007000C00039201939E423CD8902379
:105718008A89DB001A4234D00969236860695B1AF8
:10572800029303234343DD0FED18019B02980133D5
:105738001B186D10AB4200D91D00530532D5290046
:10574800380000F049FB061E09D10C233B604023BA
:105758000120A28940421343A38105B0F0BD029AFB
:105768002169FFF799FFA389144A1A40802313433C
:10577800A381029B2661F61826606561019EED1AD9
:10578800A560019B9E4200D9019E320003992068C2
:1057980000F0A3FAA36800209B1BA36023689E194E
:1057A8002660DAE72A00380000F08CFB061EE0D1FC
:1057B8003800216900F0A4FAC7E7C0467FFBFFFF65
:1057C800F0B5A1B003901D008B890F0016001B06D1
:1057D80011D50B69002B0ED1402100F0FDFA38607D
:1057E8003861002805D10C23039A0138136021B0D1
:1057F800F0BD40237B61002308AC636120336376EE
:105808001033A376079535002B78002B01D0252B74
:1058180047D1AB1B0593B5420CD032003900039831
:10582800FFF76CFF431C00D1AEE06269059B94460C
:10583800634463612B78002B00D1A5E0012200238B
:105848005242626004A9543252186E1C2360E3600D
:10585800A3601370A36505223178544800F032FA2A
:10586800751C00281FD12268D30604D5532304A928
:105878005B1820211970130704D5532304A95B185A
:105888002B21197033782A2B16D0350000210A20D5
:10589800E3682A786E1C303A092A4ED9002911D1BA
:1058A80017E00135B0E7414B2268C01A0123834055
:1058B80013432E002360CEE7079B191D1B68079131
:1058C800002B01DB0B9304E05B42E36002231343EC
:1058D80023602B782E2B0AD16B782A2B35D1079B86
:1058E80002351A1D1B680792002B2BDB0993304EDB
:1058F80003223000297800F0E5F9002806D040237B
:10590800801B8340226801351343236029780622CF
:1059180028486E1C217600F0D5F900283CD0264B8B
:10592800002B25D10722079B07339343083307939E
:105938006369049A9B18636165E743433500012155
:105948009B18A6E701235B42D0E700230A201A0030
:105958000135636029786E1C3039092903D9002B79
:10596800C5D00992C3E74243350001235218F1E735
:1059780007AB00933A002100104B039800E000BFEA
:105988000490049B0133D3D1BB890D985B0600D4E6
:105998002DE7012040422AE707AB00933A00210097
:1059A800064B039800F07CF8EAE7C046CC60000894
:1059B800D2600008D6600008000000000557000803
:1059C800F7B5150001938A680B690C0000909342A3
:1059D80000DA130022002B6043321278002A01D02B
:1059E80001332B6023689B0602D52B6802332B609A
:1059F8002268062317001F401A4227D0230043338A
:105A08001B785A1E93412268920630D422000199CD
:105A18000098089E4332B047431C25D006232068CF
:105A28002A68E16800250340042B03D18D1AEB4353
:105A3800DB171D40A3682269934201DD9B1AED180C
:105A48000027BD4220D1002010E00137E3682A6812
:105A58009B1ABB42D2DD2200012301990098089EBF
:105A68001932B047431CF0D101204042FEBD30201E
:105A7800E1184331087021005A1C45310978A218F1
:105A8800433202331170C1E72200012301990098C3
:105A9800089E1A32B047431CE6D00137D1E7000010
:105AA800F0B58BB006920A00433207930590049232
:105AB8000A7E0C00109B782A07D8622A09D8002A87
:105AC80000D1C1E0582A00D18CE02600423632705D
